:100000006F00403E130000001300000013000000CA
:100010001300000013000000130000001300000094
:100020001300000013000000130000001300000084
:08003000130000007300100032
:1000380000000000000000006002000064020000F0
:10004800000000002A03000000000000000000007B
:100058002C0300002E030000000000000000000038
:100068003003000000000000320300000000000020
:100078003403000036030000380300003A03000090
:100088003C0300003E030000A608000042030000F5
:100098004403000046030000480300004A03000030
:1000A8004C0300004E030000500300005203000000
:1000B8005403000056030000580300005A030000D0
:1000C8005C0300005E0300006003000062030000A0
:1000D8006403000066030000680300006A03000070
:1000E8006C0300006E030000700300007203000040
:1000F8007403000076030000780300007A03000010
:100108007C0300007E0300008003000082030000DF
:100118008403000086030000880300008A030000AF
:100128008C0300008E03000090030000920300007F
:100138009403000096030000980300009A0300004F
:100148009C0300009E030000D4080000A2030000E6
:10015800A4030000A6030000A8030000AA030000EF
:10016800AC030000AE030000B0030000B2030000BF
:10017800B4030000B6030000B8030000BA0300008F
:10018800BC030000BE030000C0030000C20300005F
:10019800C4030000C6030000C8030000CA0300002F
:1001A800CC030000CE030000D0030000D2030000FF
:1001B800D4030000D6030000D8030000DA030000CF
:1001C800DC030000DE030000E0030000E20300009F
:1001D8000000000000000000000000000000000017
:1001E8000000000000000000000000000000000007
:0801F8000000000000000000FF
:10020000397101436EC619A0397141536AC866CA73
:1002100062CC5ECE19A0397101535AD056D252D455
:100220004ED64AD826DA22DC06DE330161408282CD
:1002300041114AC026C222C406C68282B24D410183
:10024000024D924C224CB24B4101024B924A224A3F
:10025000B2494101024992442244B24041018280A4
:100260007300203001A0EFF2BFFCF12141650115C0
:10027000512101A0B71702409843B706FFF8136752
:10028000170098C3D843758FD8C39843B706F7FEB5
:10029000FD16758F98C39843B706FCFFFD16758F42
:1002A00098C3D843B70681FFFD16758FD8C398430E
:1002B000B70600ECFD16758F98C33707FF0098C787
:1002C00023A60702B746024003A70680136707016B
:1002D00023A0E680D843B706C1FFFD16D8C3D84394
:1002E000D8C3D84313670740D8C3D843758FD8C342
:1002F000D843B7060001D8C39843558F98C3984395
:1003000093166700E3DD06FED843B7160240719BE3
:10031000D8C3D84313672700D8C32147DC42B18B29
:10032000E39EE7FE828001A001A001A001A001A040
:1003300001A001A001A001A001A001A001A001A0B5
:1003400001A001A001A001A001A001A001A001A0A5
:1003500001A001A001A001A001A001A001A001A095
:1003600001A001A001A001A001A001A001A001A085
:1003700001A001A001A001A001A001A001A001A075
:1003800001A001A001A001A001A001A001A001A065
:1003900001A001A001A001A001A001A001A001A055
:1003A00001A001A001A001A001A001A001A001A045
:1003B00001A001A001A001A001A001A001A001A035
:1003C00001A001A001A001A001A001A001A001A025
:1003D00001A001A001A001A001A001A001A001A015
:1003E00001A001A0970100209381C1411781002045
:1003F000130141C1170500001305C55497050020DE
:10040000938545C0170600201306C6BF63FAC500D2
:100410008322050023A0550011059105E3EAC5FEDE
:1004200017050020130505BE970500209385C5BD5F
:100430006377B500232005001105E36DB5FEFD428D
:10044000739002BCAD4273904280B7620000938209
:10045000820873A0023097020000938222BE93E2CA
:10046000320073905230EFF0FFE097020000938269
:10047000C2DF7390123473002030B707014023AA03
:10048000A74082809C4513F7070113F8F70001C7C6
:10049000D8413368E8008E2113F7F50F39C31841AE
:1004A0008146854E3D4F930F800293028004214E7A
:1004B0003396DE00B3F8C500631116039398260047
:1004C00033131F011343F3FF3377E300B31818010D
:1004D00033E7E800639FF70550C98506E39AC6FD38
:1004E00018C11307F00F6375B70454412146854EB8
:1004F0003D4F930F800293028004414EB398CE008B
:1005000033F715016392E80213172600011733131E
:10051000EF001343F3FFB376D3003317E800D98E0F
:10052000639DF701232A15010506E319C6FD54C191
:100530008280E39457FA10C94DB7E39757FE2328FA
:100540001501DDB719C20CC982804CC9828099C5DA
:10055000371702401C4F5D8D08CF8280B7170240CD
:10056000984F1345F5FF798D88CF828093C5F5FFAD
:10057000C205C1810EA98280EFF29FCB4111854552
:100580001305000402C202C402C6D137E17793C743
:1005900007F87C8237250140C1473EC64C008D4795
:1005A000130505803EC4F93D41016DB1EFF2BFC6B0
:1005B0003724014001469165AA8413050480593708
:1005C000856513050480014693850580B7290140A0
:1005D000953F2144138909800146930500204A85EF
:1005E000953793978401E187054663C30700014669
:1005F000930500404A85B9377D14054693050020D0
:100600004A8586041374F40F353F93F4F40F69F4AC
:100610000546916513850980353705B9EFF2BFBFEF
:100620003724014001469165AA8413050480193FCF
:10063000856513050480054693850580B72901402B
:1006400011372144138909800146930500204A850A
:10065000D53D93978401E187054663C307000146B2
:10066000930500404A85F93D7D1405469305002019
:100670004A8586041374F40FF13593F4F40F69F48A
:100680000546916513850980753DC1B6EFF25FBAE5
:100690001305C002213F7DBEEFF2FFB7AA89130503
:1006A000A0023684AE843289113713D58900BD3754
:1006B00013F5F90FA537135589008D371375F90F09
:1006C000B13F1305B002DD3513D58400813F13F52A
:1006D000F40FA9371355840091371375F40F3D3F7C
:1006E0001305C002E13595B6EFF29FB413059002F1
:1006F000753D8DB6EFF23FB22A899306F0131306CB
:10070000F00E81450145493F9359890041379304D3
:1007100000141379F90F1304000F4E857D14FD3D6D
:1007200042044A854180DD3D6DF8FD14C204C1805C
:10073000FDF05D3F19BEEFF2BFAF3D3D37240140F4
:100740000546856513050480F53B05456D2A014680
:10075000856513050480FD332945752205468565A9
:1007600013050480C53313058007712A45453D3DB7
:1007700013058007492A130560030D3D0145793DA6
:100780001305A00325351545513D1305200B393DB3
:100790003145693531455935014549351305300332
:1007A000B53D130530039D3D1305700B0135130551
:1007B0005003AD351305B00BD53B13058002B93D91
:1007C0001305000CE5331305C002893D1305200C09
:1007D000F13B0545A1351305300CC93B2D453D3D89
:1007E0001305400CE133130500020D3D1305600CA9
:1007F000753B3D4525351305000D4D3B1305400A5E
:10080000313D1305100A193D1305000E453313053C
:10081000000D293505451935214509353D45FD3B77
:100820004545ED3B1305A002D53B13056003FD33A1
:1008300013055005E53313054004CD331305A0031C
:10084000F13B2D45E13B1945D13B4545C13B1305E6
:100850000002E9331305100E913B1305000D7D3B9B
:1008600009456D3B1D455D3B29454D3B2D457D3380
:1008700061456D3313054003553313053004793B4F
:100880001305A004613B1305B002493B6D45793364
:10089000714569331305200251337D4541331305FA
:1008A0009002293345BA0545C93EB7070020938712
:1008B00007009A2385653725014042074183133796
:1008C00017009AA3922393850580130505809D390F
:1008D000730020308545371500404939B70700209F
:1008E000938707009A238565372501404207418396
:1008F000133717009AA3922393850580130505806B
:10090000913173002030B7F700E0D8438146799BDE
:10091000D8C337070020035727003306A70290CB20
:10092000D4CB98431367070198C398431367170202
:1009300098C3D843058B75DF9843799B98C3828011
:00000001FF
