:100000006F00902313000000130000001300000095
:100010001300000013000000130000001300000094
:100020001300000013000000130000001300000084
:08003000130000007300100032
:100038000000000000000000080300000C0300009E
:10004800000000007E090000000000000000000021
:100058008009000082090000000000000000000084
:10006800840900000000000086090000000000006C
:10007800880900008A0900008C0900008E09000028
:100088009009000092090000E21E00009609000095
:10009800980900009A0900009C0900009E090000C8
:1000A800A0090000A2090000A4090000A609000098
:1000B800A8090000AA090000AC090000AE09000068
:1000C800B0090000B2090000B409000050030000A4
:1000D800B8090000BA090000BC090000BE09000008
:1000E800A8030000C2090000C4090000C6090000F6
:1000F800C8090000CA090000CC090000CE090000A8
:10010800D0090000D2090000D4090000D609000077
:10011800D8090000DA090000DC090000DE09000047
:10012800E0090000E2090000E4090000E609000017
:10013800E8090000EA090000EC090000EE090000E7
:10014800F0090000F2090000101F0000F609000085
:10015800F8090000FA090000FC090000FE09000087
:10016800000A0000A0030000040A0000060A0000BC
:10017800080A00000A0A00000C0A00000E0A000023
:10018800100A0000120A0000140A0000160A0000F3
:10019800180A00001A0A00001C0A00001E0A0000C3
:1001A800200A0000220A0000240A0000260A000093
:1001B800280A00002A0A00002C0A00002E0A000063
:1001C800300A0000320A0000340A0000360A000033
:1001D8000000000000000000000000000000000017
:1001E8000000000000000000000000000000000007
:0801F8000000000000000000FF
:10020000397101436EC619A0397141536AC866CA73
:1002100062CC5ECE19A0397101535AD056D252D455
:100220004ED64AD826DA22DC06DE330161408282CD
:1002300041114AC026C222C406C68282B24D410183
:10024000024D924C224CB24B4101024B924A224A3F
:10025000B2494101024992442244B24041018280A4
:100260003D432A876373C3029377F700BDEFADE583
:10027000937606FF3D8ABA960CC34CC30CC74CC795
:100280004107E36BD7FE11E28280B306C3408A06C2
:100290009702000096966780A6002307B700A30682
:1002A000B7002306B700A305B7002305B700A304D2
:1002B000B7002304B700A303B7002303B700A302CA
:1002C000B7002302B700A301B7002301B700A300C2
:1002D000B7002300B700828093F5F50F9396850051
:1002E000D58D93960501D58D61B79396270097021A
:1002F000000096968682E78086FA9680C1171D8F49
:100300003E96E374C3F8A5B773002030379500001C
:10031000130545F4EF80D02EEF105055AA85379580
:100320000000130585F5EF80702BEF109054AA851F
:1003300037950000130585F6EF80502AEF10D05353
:10034000AA8537950000130585F7EF80302901A0B5
:1003500039712AD61305000806DE16DC1ADA1ED813
:100360002ED432D236D03ACE3ECC42CA46C872C61D
:1003700076C47AC27EC0EF00F01FF250E2525253B0
:10038000C2533255A255125682567247E24752481E
:10039000C248324EA24E124F824F2161730020306C
:1003A000EF10204E730020302945EF00D0778545AF
:1003B00037050040EF00F05D7300203019C9EFF2FF
:1003C0003FE7AA853795000013058503EF801021CC
:1003D00051B58280EFF2DFE541118545054502C246
:1003E00002C423160100EF00D04183A741813747A3
:1003F0000F0013070724B3D7E7024C00370500406E
:1004000023150100FD177C8489679387F7703EC22E
:10041000EF00304A0546854537050040EF0090550E
:10042000854537050040EF0070538545370500408E
:10043000EF003056B7E700E0056723A2E71041015F
:1004400011BDEFF2FFDE39711306C003814548008C
:10045000013DB707002083A707021384E1853ED83A
:1004600083D701814C001385E1853ED49387218198
:100470009A239306170096A38D473ED085679387EE
:1004800087B63AD63EC8EF20A0550C20AA843795EF
:100490000000130585F8EF807014268505370820C5
:1004A000EF203053213F216175B3EFF2DFD62A846C
:1004B0004165AE8913050580EF10606CA299014972
:1004C0008144130A8013A94A130B000F6393890018
:1004D000ADBBE38F44FF0306040063165601E1043D
:1004E00001490504E5B763146901E10401491315E5
:1004F0000901939504010547E1461376F60FC18182
:100500004181EF10006E6109E9BF9306C003B30695
:10051000D5027971B767002022D426D24AD006D6F8
:100520004ECE00181387C7143697504714474C4BCC
:10053000184FB2962A893386E5009384C71463F472
:10054000C6003387B6401306C4FD4A85232EE4FC5B
:10055000EF20B0250326C4FDAA899307F600C19BAE
:100560003301F1409307C003B307F9020A85A69748
:10057000CC4BEF80301A379500008A85130505FAB9
:10058000EF80D0058325C4FD0A85053763980900EF
:100590001306C4FD81454A85EF20206A130104FD3E
:1005A000B250225492540259F24945618280EFF2CE
:1005B0009FC693F74500AA842E8991C3B9379377D4
:1005C0008900B9CB85452685EF20703B056613066B
:1005D00086B6B385C402B707002093870715268522
:1005E0008549BE95EF20406003C701869307F00F51
:1005F000138401866314F70004A081493795000035
:10060000130505FFEF80C07F4E940C203795000046
:1006100013058500EF80807C9377090191CF938744
:1006200001869823631497007D5798A3379500009F
:1006300013058501EF80C07C13790904630009026A
:10064000938701869823631497007D5798A3379565
:10065000000013058502EF80A07AE533FDB6EFF2C6
:100660003FBDEF20502D937715002A8499C7379509
:100670000000130505FBEF80A0789377240099C74D
:1006800037950000130545FCEF8080779377440091
:1006900099CBEF20302E118919C53795000013052D
:1006A000C5FDEF80E075418811E06DB60145EF2092
:1006B000D029AA857DD90145DD3DC5BFEFF2BFB583
:1006C0004111EF100063416513050580EF10204BC9
:1006D000C52AEF101007716513050520EF10900F64
:1006E0003795000013058504EF80807183A5418153
:1006F0003795000013058505EF80406EE926AA8531
:100700003795000013058506EF80406DEF20202708
:10071000AA853795000013058507EF80206CEF2030
:100720000026DD476308F5003795000013058508AE
:10073000EF80006D13858185EF00F03C3795000058
:1007400013058509EF8080698144138A8185B799F3
:1007500000001949B3079A008C231385490A8504C0
:10076000EF80C067E39824FF2945EF80006E9D313C
:10077000938681851386C18093854180138581800E
:10078000EF10A01C2A841D3919E4379500001305C9
:10079000850AEF80E0669567938707E23EC291671E
:1007A000938787A93EC44800A5473EC6EF20C009ED
:1007B0007D572380E1867131EF00F054EF20D01394
:1007C00065DD713DD5BFB71702409843B706FFF806
:1007D00041111367170098C3D84337060200758F7D
:1007E000D8C39843B706F7FEFD16758F98C3984394
:1007F000B706FCFFFD16758F98C3D843B70681FF77
:10080000FD16758FD8C39843B70600ECFD16758F9B
:1008100098C33707FF0098C723A6070202C402C681
:100820009843C166558F98C3B716024005679C422E
:10083000F18F3EC6A24785073EC4B24781E7A24773
:10084000E397E7FEB71702409C431397E70063570F
:10085000070685473EC632478547631FF704B7172B
:100860000240D843B706C1FFFD16D8C3D843D8C34A
:10087000D84313670740D8C3D843758FD8C3D8432C
:10088000B7062900558FD8C39843B7060001558F86
:1008900098C3984393166700E3DD06FED843B71666
:1008A0000240719BD8C3D84313672700D8C32147A0
:1008B000DC42B18BE39EE7FE4101828002C661BF4C
:1008C000371602405C429146B18B138741816385A4
:1008D000D700A1466388D702B7177A00938707200D
:1008E0001CC3B7170240DC43918393F6F700B707A8
:1008F000002093870700B69794231C43B3D7D700F3
:100900001CC3828054425042C167C982BD8A7D8E19
:100910009387260085CABD466389D702C14663898D
:10092000D702C54581466393B700C1470DE63746F8
:10093000024003260680418A15C637167A00130640
:1009400006202DA08146C947D5B78546B547F9BFD2
:100950008146BD47E1BF3716024050429315E6007D
:10096000E3DD05FC37163D0013060690B387C7028A
:100970001CC3A5DA1C438583A5B701A001A001A073
:1009800001A001A001A001A001A001A001A001A05F
:1009900001A001A001A001A001A001A001A001A04F
:1009A00001A001A001A001A001A001A001A001A03F
:1009B00001A001A001A001A001A001A001A001A02F
:1009C00001A001A001A001A001A001A001A001A01F
:1009D00001A001A001A001A001A001A001A001A00F
:1009E00001A001A001A001A001A001A001A001A0FF
:1009F00001A001A001A001A001A001A001A001A0EF
:100A000001A001A001A001A001A001A001A001A0DE
:100A100001A001A001A001A001A001A001A001A0CE
:100A200001A001A001A001A001A001A001A001A0BE
:100A300001A001A001A001A097010020938181DE07
:100A400017F100201301015C17B500001305C52044
:100A500097F5FF1F9385055B1386818563FAC500B3
:100A60008322050023A0550011059105E3EAC5FE88
:100A70001385818597650020938545876377B50049
:100A8000232005001105E36DB5FEFD42739002BC05
:100A9000AD4273904280B76200009382820873A0D7
:100AA000023097F2FFFF9382625993E23200739013
:100AB0005230EFF05FD197020000938262C07390D2
:100AC000123473002030B7F7FF1F03A547708280F0
:100AD000EFF20FF685451165752B814511655D2B8C
:100AE0006FF04FF7930700043CC1930700027CC1ED
:100AF000930700087CD123200500B70700042322B8
:100B00000500232405002326050023280500232AA9
:100B10000500232C0500232E050023200502232297
:100B20000502232405022326050223280502232A81
:100B30000502232C0502232E050223240504232667
:100B4000050423280504232A0504232C0504232E49
:100B5000050423200506232405062326050623284D
:100B60000506232A0506232C0506232E0506232029
:100B7000F508B70700022322F5082322F50AB70774
:100B80000200370720002326F50A930700102324CC
:100B900005082326E50823280508232A0508232C11
:100BA0000508232E05082320050A2324050A2328E7
:100BB000F50A232A050A232C050A8280411102C660
:100BC000B78602409C4A41672E057D17F18B798DCF
:100BD0009A055D8D93F5057CC98D93E51500B707E2
:100BE00050008CCAF917324705073AC6984A058B58
:100BF00001C73247E3F9E7FE3247B7075000FD1758
:100C000001456307F700B7870240C84B42054181A1
:100C1000410182804111B787024002C6984BC166EC
:100C2000FD162E05758D718B9A05598D93F5057CF2
:100C3000C98DD0CB93E535008CCBB7070500B786BF
:100C40000240F917324705073AC6984A058B01C793
:100C50003247E3F9E7FE3245B7070500FD173335A4
:100C6000F5004101828023A4A1862A878147B70825
:100C7000104013030060130EF6FF6396C700B7978A
:100C8000024088CB8280B3866702232017012A881E
:100C9000AE9614C79306070163F3C701368823266F
:100CA000070185073687D1BF916623A2A186014738
:100CB000AA873703008093860660130E0060930EA8
:100CC000F6FF6316C700B7970240C8C78280330893
:100CD000C70323A06700D4C3AA882E9823A40701C2
:100CE000138807016373D701C28823A6170105077C
:100CF000C287C1BF379702401C4393E717001CC34C
:100D00008280B7970240C8CB8280379702401C4F41
:100D1000B7061000D58F1CCF8280EFF26FD13784D9
:100D200002401C4093E787001CC0C5371C40896601
:100D300093E747001CC0B7970240984F558F98CF54
:100D4000984F1367270098CF6FF0CFD099C537978A
:100D500002405C4F5D8D48CF8280B7970240D84FEC
:100D60001345F5FF798DC8CF8280B707014023AACC
:100D7000A7408280B707014023AAA74082809C45F4
:100D800013F7070113F8F70001C7D8413368E800EB
:100D90008E2113F7F50F39C318418146854E3D4F1B
:100DA000930F800293028004214E3396DE00B3F845
:100DB000C500631116039398260033131F011343D4
:100DC000F3FF3377E300B318180133E7E800639FBC
:100DD000F70550C98506E39AC6FD18C11307F00F41
:100DE0006375B70454412146854E3D4F930F8002F1
:100DF00093028004414EB398CE0033F715016392FD
:100E0000E8021317260001173313EF001343F3FF13
:100E1000B376D3003317E800D98E639DF701232AF8
:100E200015010506E319C6FD54C18280E39457FA03
:100E300010C94DB7E39757FE23281501DDB70CC93C
:100E400082804CC9828019C20CC982804CC98280C0
:100E5000371702405C439146B18B6385D700A146AA
:100E60006382D706B7177A00938707201CC137160D
:100E700002405C4237070020130707019183BD8BB6
:100E8000BA9794231C41B3D7D7005CC15442A182C6
:100E90009D8ABA969422B3D6D70014C55442AD8227
:100EA0009D8A36971823B3D7E7005CC5584239832B
:100EB000937637001387818136971823B3D7E702DB
:100EC0001CC982805C435843C166C983758FB7F6DD
:100ED000FF1F83A6C670BD8B890713961601634852
:100EE0000600C54601466392D702C94739A889461C
:100EF000638FD702BD46638ED702C146638ED70289
:100F0000C54601466393D700C1471DEF37470240EE
:100F100003270780418B05C737177A00130707207F
:100F2000B307F7021CC121D61C41858381B7014656
:100F30006DBF0546B547D1BF0146BD47F9B7371765
:100F40003D0013070790E9BFB7150240D855931627
:100F5000F700D85563DF060411833D8B9306170015
:100F600037177A00130707203357D70218C1D45513
:100F7000A182BD8A8DE295463307D702058318C149
:100F800037170240585714413D8B050733D7E60207
:100F900018C1184171B785456394B600E546E9BFAD
:100FA000BD456396B600D1463387E602C9BF8906C0
:100FB000E5BF3D8B9306170037177A00130707200C
:100FC0003357D702F1B799C5371702405C4B5D8D97
:100FD00048CB8280B7170240D84B1345F5FF798D77
:100FE000C8CB828099C5371702401C4F5D8D08CF52
:100FF0008280B7170240984F1345F5FF798D88CF4F
:10100000828099C5371702405C4F5D8D48CF828042
:10101000B7170240D84F1345F5FF798DC8CF8280AE
:101020009357550005476399E700B71702409C4363
:1010300033D5A7000589828009476396E700B71773
:1010400002409C53F5B7B7170240DC53D5B73717AA
:1010500002405C5793F7F7F05D8D48D78280B71652
:101060000240DC5645777D17F98F5D8DC8D68280AA
:1010700009C9371702401C43B7060010D58F1CC39F
:101080008280B71602409C42370700F07D17F98F27
:101090009CC2828099C5371702401C575D8D08D7C6
:1010A0008280B717024098571345F5FF798D88D78E
:1010B00082801E2137370140930607C0C207C183D3
:1010C0006300D504B7060040630CD5029386064042
:1010D0006308D502B7160040138606806302C50276
:1010E000938606C0630ED50013070740630AE50028
:1010F00037570140930607C06304D5006316E50027
:10110000BA2193F7F7F8D98F37170040630CE50041
:10111000130707406308E50093F7F7CFFA21C207EA
:10112000C183D98F1EA1DE215EB59E211EB5B737C2
:101130000140138707C0630EE50093870740630AE9
:10114000F500B7570140138707C06304E500631437
:10115000F5009C251EB985475EA982801E2189C5A0
:1011600093E717001EA18280C207C183F99BC207C3
:10117000C183CDBF5E2501C6DD8D4EA5828093C59E
:10118000F5FFFD8DDDBF93C5F5FFC205C1810EA939
:10119000828093C5F5FFC205C1810EA98280EFF25E
:1011A0002F891629F577FD17F58FF621DA25797144
:1011B000D58F1EA95625FD779387379FF58FD621AA
:1011C0002A842EC6D58F9625D58FB625D58F5EA5B8
:1011D0005E29C207C18393F7F7CFD98F5EA968084C
:1011E0008539B747014093870780B245631AF404F5
:1011F000A25756246547B387E702C206C1869841C5
:1012000063D20604060752244206B3D7E702130747
:1012100040064186B3D6E702B3F7E702920663556C
:1012200006028E0793872703B3D7E70213F77700E9
:10123000B367D700C207C1831EA445616FF08F81D9
:10124000925745BF0A07C1B7920793872703B3D7C1
:10125000E702BD8BD58FF9BF91C55E250967D98F90
:101260005EA582805A25F977FD17F98FD5BF93F5D2
:10127000F51F4EA182800A216D8D3335A00082803A
:1012800083A78186944363C0060423ACF18694430C
:101290003706C0304E05D18E94C394433706008084
:1012A0004D81D18E94C3C8C38CC7B7960240D04A33
:1012B000118A09C61146D0CA23A20600DC4705459B
:1012C00023A4F186828001458280EFE27FF6854784
:1012D00089456317F5003715014095366FE09FF794
:1012E00037150140B93EDDBFEFE29FF485478545E4
:1012F0006317F5003715014099366FE0BFF53715D4
:1013000001408136DDBF37F7FF1F81471307D77EC6
:1013100099463306F7400C223306F50085070CA2E8
:10132000E399D7FE82809387C18698433A9588C314
:101330008280EFE2FFEF138401870A209545EFF0EA
:10134000FF87AA840A208545FD88EFF03F879387B1
:10135000D187C9C803870700634507049384C18107
:10136000942021476396E6020A208145EFF01F850D
:10137000136605200A20420641828145EFF09F89CD
:101380000146238004000A20F945EFF0BF8821A020
:10139000130700F898A3238E0186238201886FE04B
:1013A0007FEB9387618898239306170094A3954653
:1013B000E313D7FE1375050279FD0A2081452380CA
:1013C0000700EFF0AFFF136605200A2042064182B6
:1013D0008145EFF03F849387C181902313464600F7
:1013E00090A355B79423130700086397E60423825C
:1013F00001881387C1871023BD459306160093F615
:10140000F60F6304B60014A359BF0A202300070097
:1014100081452383018823800700EFF02FFA1366AC
:1014200005200A20420641828145EFF0AFFE2147A8
:10143000238EE180214625A09384C18194208DE6EE
:101440000A208145EFF08FF7136605200A20420637
:1014500041828145EFF00FFC91479CA011460A2084
:10146000F945EFF02FFB25BF1146138741886393A1
:10147000C604230007001387C1871023BD459306C8
:10148000160093F6F60FE310B6F80A2023000700C3
:1014900081452380070023830188EFF02FF2136634
:1014A00005200A20420641828145EFF0AFF6A147B0
:1014B0009CA049B71423130640069387160093F7A0
:1014C000F70F6384C6001CA3D9BD0A20216681459D
:1014D00023000700EFF00FF4B1BF83C751889DE3ED
:1014E0001387C1869387018890431443918E130616
:1014F00010036379D600EFE2BFD3184398C3153DBC
:101500006FE05FD58280EFE2BFD2EF00F050EF00D6
:101510001037E1376FE01FD4EFE29FD141118545CD
:10152000414502C202C402C6EFF0DFAB8D477C82A8
:10153000C1473EC64C008D47371501403EC4EFF011
:101540001F84894537150140EFF07F8F854537159A
:101550000140EFF0DF8E41016FE0DFCFEFE25FCDC2
:10156000014539364145E5343565D53C05450936F3
:101570001305D003EFF0DFAA65DD6FE0BFCDEFE22A
:101580009FC9138A018703550A009545EFF00FE3C1
:10159000AA8903550A00854513840187EFF00FE2FD
:1015A000937745002A8993845188B1CF639D0904BC
:1015B00003550A0021668145EFF0CFE5374402402C
:1015C000832704801305401FED9B2320F480EF0048
:1015D000101D8327048003550A00214793E7470025
:1015E0002320F4802382018823830188238E0186AF
:1015F000A38E018623800400238EE1802146F945D5
:10160000EFF04FE191A84A85EF005042137949026B
:1016100093074002631AF9040A20C145EFF00FDA7C
:101620001189B786024001E993F9F9018547B78628
:1016300002406385F9029C42056713070780D98F32
:101640009CC2B78602409C4251777D17F98F9CC29D
:1016500091479CA0EFF06FEC6FE03FBF9C427D771D
:101660001307F77FF98FE9BF23820188238301885D
:10167000238E0186A38E0186214723800400238EBA
:10168000E1802146F9450A20A5BFEFE27FBAB7867F
:101690000240984AAA872E850D9B98CACC4398434E
:1016A00090424D8FB78520FF9385F5106D8E518F39
:1016B0009047518FD047518F904B518FD04B518FC6
:1016C000904F518FD04F518F9053518FD053518F96
:1016D0009057518FD057518F905B518FD05B518F66
:1016E00098C2984237061000518F98C2D05F985F19
:1016F000518FB043518FF043518FB047518FF04716
:10170000518FB04B518FF04B518FD8C2B84F98C604
:10171000F84FD8C6AC57F853904E4D8FC16593859E
:1017200015F46D8E518FF057B7950240518FB05B15
:10173000518FF05B518FB0534206518F98CEF05FBE
:10174000B85F518FD8CE03A6470803A70708944D6A
:10175000518F3746DEF8130636F2F18E558F83A689
:1017600087082166558F83A6C708558F83A607096A
:10177000558F83A64709558F83A68709558F83A662
:10178000C70983A7070A558F5D8F98CD8145EFF074
:101790006FC803D501872146F945EFF0AFC705456E
:1017A0006FE05FABEFE23FA731718545AA847165B9
:1017B000EFF07F8185472398F1864D33374702400C
:1017C0008327078009641304047193E747002320EB
:1017D000F780EFF0EFAF13890187EFF0AFD1B79942
:1017E00002407D14420429454180EF00E07709C49E
:1017F00083A70900858BF5F74800EFF0AFAE85674A
:10180000938707803ED2930700403ED485473EC26F
:10181000930700203ED6B70700023EC58355090056
:10182000B70720003EC9930700083ECD4800930744
:1018300000043ECF02CC02D002D802DE82C482C8AD
:1018400082CA82CC02C302D38935DC30D820B78665
:101850000240A207D98FBCC298309C2037850180F6
:1018600022075D8FBC2085451305150CC2075D8FCF
:10187000BC30E207D98FFCC2EFF04FCD29616FE099
:10188000DF9CEFE2FF9AB7970240C04B9317040129
:1018900063DC07009377040889C713050008EFF09D
:1018A0004FC62165EFF0EFC59317F40063D207042C
:1018B0009377040489C713050004EFF08FC493776E
:1018C000140081C70545EFF0CFC3635704004539C5
:1018D00037050080EFF0EFC2118801C8B7970240CA
:1018E00023A207001145EFF0CFC14165EFF06FC1B2
:1018F0006FE05F96EFE2DF932A84393913054006E3
:10190000EF00E0692285793DB72500201384814DE1
:101910000946938585511385814DEFF0CFB4B715F6
:101920000020938481491146938585D1138581498F
:10193000EFF08FB723AA918623AC81860967B7E7BA
:1019400000E023A4E7106FE0FF90EFE27F8E397193
:10195000930700603ECA9307405B3ECC8567938740
:1019600047233ECE930720033ED08D473ED2B72774
:10197000550685073ED4B71700009387872E3ED6BD
:10198000B71700009387A72C3ED8B717000093879E
:1019900007283EDAB7573412938787672A894808A1
:1019A0002EC632C4B68402DC3EDEEF00506B2A84C1
:1019B00011E92246B245A6864A85EF00305E2A84A8
:1019C00026850D3F228521616FE0DF88EFE25F868B
:1019D000411185451305000402C202C402C6EFF09E
:1019E0006FE0E17793C707F87C8237250140C14754
:1019F0003EC64C008D47130505803EC4EFF02FB85E
:101A000041016FE03F85EFE21F813724014001462D
:101A10009165AA8413050480EFF0EFC28565130574
:101A20000480014693850580B7290140EFF0AFC1DE
:101A30002144138909800146930500204A85EFF06F
:101A40008FC093978401E187054663C30700014671
:101A5000930500404A85EFF00FBF7D1405469305BE
:101A600000204A8586041374F40FEFF0CFBD93F481
:101A7000F40F71F00546916513850980EFF0AFBC56
:101A80006FE0AFFCEFE22FF937240140014691658A
:101A9000AA8413050480EFF00FBB8565130504804D
:101AA000054693850580B7290140EFF0CFB9214461
:101AB000138909800146930500204A85EFF0AFB8ED
:101AC00093978401E187054663C3070001469305A8
:101AD00000404A85EFF02FB77D140546930500209E
:101AE0004A8586041374F40FEFF0EFB593F4F40F06
:101AF00071F00546916513850980EFF0CFB46FE072
:101B0000CFF4EFE2EFF21305C002F53D6FE08FF482
:101B1000EFE26FF0AA891305A0023684AE84328901
:101B2000DD3513D58900B93F13F5F90FA13F1355E2
:101B30008900893F1375F90FB1371305B002E135FC
:101B400013D58400813713F5F40F2D3F135584000E
:101B5000153F1375F40F3D371305C0026D356FE067
:101B6000CFEEEFE2EFEC13059002713D6FE08FEEE8
:101B7000EFE20FEC1305800279356FE0AFEDEFE295
:101B80008FE92A89F5379306F0131306F00E814585
:101B90000145BD3F93598900AD3793040014137973
:101BA000F90F1304000F4E857D14E93D42044A8568
:101BB0004180C93D6DF8FD14C204C180FDF0553768
:101BC0006FE0AFE8EFE2CFE63284AE862A8689374F
:101BD0000D3F135584007D351375F40F65356FE0A7
:101BE0006FE7EFE2EFE193F4760093D73600B3347A
:101BF0009000BE9493D71600B387F402130906FE33
:101C00001379F90F4111130A4002A96A256BA56BDC
:101C1000AA89AE8C3EC093176900330A49033EC2BD
:101C200012092E84014C938ACA42130B0B6D938BBD
:101C30000B0E024693170C01C18363E5C7004101F7
:101C40006FE0CFDFC1476398F606B3078901DE97DF
:101C5000842393071400C20713038400C183131D58
:101C60000301B38D9741135D0D0113F604083DC2C6
:101C700003D68188A2854E853AC636C4A137A246CE
:101C8000324705041398140042049314080141805C
:101C90009307F013C180E3E487FA6398B6058509DA
:101CA000C20993D909019307F00EE3EA37F9668D6B
:101CB000050C6A84BDBFE1476396F600B3078A014D
:101CC000DA9779B793070002E39BF6F69247E2971B
:101CD000D697BDBF5DF703D6E181A2854E853AC692
:101CE00036C4CD353247A24669BF850DE31F8DF658
:101CF000C1B7EFE2EFD3EFF07FCD372401400546C7
:101D0000856513050480EFF00F940545492C0146C5
:101D1000856513050480EFF00F9329454924054696
:101D2000856513050480EFF00F9213058007852C5D
:101D30004545EFF05FCD130580079524130560033B
:101D4000EFF07FCC0145EFF0FFD31305A003EFF0D8
:101D50009FCB1545EFF01FD31305200BEFF0BFCA43
:101D60003145EFF03FD23145EFF0DFD10145EFF0E3
:101D70007FD113053003EFF0FFD013053003EFF0F0
:101D80007FD01305700BEFF01FC813055003EFF061
:101D90007FCF1305B00BEFF01FC713058002EFF0E4
:101DA0007FCE1305000CEFF01FC61305C002EFF045
:101DB0007FCD1305200CEFF01FC50545EFF09FCC3C
:101DC0001305300CEFF03FC42D45EFF0BFCB1305EA
:101DD000400CEFF05FC313050002EFF0BFCA13051C
:101DE000600CEFF05FC23D45EFF0DFC91305000D59
:101DF000EFF07FC11305400AEFF0DFC81305100AAA
:101E0000EFF05FC81305000EEFF0FFBF1305000DE4
:101E1000EFF05FC70545EFF0FFC62145EFF09FC625
:101E20003D45EFF03FC64545EFF0DFC51305A00285
:101E3000EFF05FC513056003EFF0DFC41305500535
:101E4000EFF05FC413054004EFF0DFC31305A003F8
:101E5000EFF05FC32D45EFF0FFC21945EFF09FC2D1
:101E60004545EFF03FC213050002EFF0BFC1130577
:101E7000100EEFF05FB91305000DEFF0BFC009457C
:101E8000EFF05FC01D45EFF0FFBF2945EFF09FBFAA
:101E90002D45EFF03FBF6145EFF0DFBE1305400376
:101EA000EFF05FBE13053004EFF0DFBD1305A004B3
:101EB000EFF05FBD1305B002EFF0DFBC6D45EFF052
:101EC0007FBC7145EFF01FBC13052002EFF09FBBF4
:101ED0007D45EFF03FBB13059002EFF0DFB26FE0FE
:101EE0006FB70545EFE07FE89387A1889A23856562
:101EF0003725014042074183133717009AA39223E5
:101F00009385058013050580EFE0FFF37300203013
:101F1000854537150040EFF00FA79387A1889A23D6
:101F200085653725014042074183133717009AA37F
:101F300092239385058013050580EFE0DFF07300A1
:101F4000203083A7418137177A0013070720B3D7C2
:101F5000E70293F7F70F2387F1881307803EB387D3
:101F6000E7022396F1888280B7F700E0D8438146E4
:101F7000799BD8C303C7E1883306A70290CBD4CBA3
:101F800098431367070198C398431367170298C3D0
:101F9000D843058B75DF9843799B98C38280B7F748
:101FA00000E0D8438146799BD8C303D7C188330664
:101FB000A70290CBD4CB98431367070198C39843EB
:101FC0001367170298C3D843058B75DF9843799B35
:101FD00098C38280EFE2CFA52A841165011185455F
:101FE0001105EFF02F80930700207C823715014008
:101FF0008D473EC44C00E147130505803EC6EFE027
:102000001FD822C837440140B70708000C08130541
:1020100004803ECC02CA231E0100EFF04F98854594
:1020200013050480EFF04FA305616FE0AFA2EFE26C
:102030008F9EB7440140AE89328901449384048065
:10204000634524014A856FE04FA09305000426856F
:10205000EFF06FA27DD9B3878900838507002685BD
:102060000504C205C181EFF08FA0D9BF73251034DC
:102070008280732520348280732530348280EFE2A1
:102080002F9B83A7C18641113EC6EF10A00E118978
:10209000630105129387818A9843B246998E376708
:1020A00000200327872205836376D700324798C331
:1020B000EF30F023EF3010569384418A9840B247B6
:1020C000998F1307703E6376F700EF10707FB24769
:1020D0009CC0938701899843B246998E0567130780
:1020E00077386376D700324798C3EF10403BB76725
:1020F00000209387C71ED84711CF1387018A10434A
:10210000B246918E1306703E6376D600B246DC432B
:1021100014C38297B764002083A74419B1C393877F
:10212000C18994433247158F9306F07C63F9E6002A
:10213000324798C3938744199C4B91C382979387E6
:1021400081899843B246998E3D671307F7A5637955
:10215000D70032479384441998C3DC4891C38297CF
:102160003245938441899D2C9C4032471D8FBD6729
:102170009387F7A563F5E7003524B2479CC003C7F2
:10218000518BBE841377F70F0DC703C7518B13779D
:10219000070C1DE3B767002083A7C72699C3054531
:1021A000829703A7C18623A8E18A93070004A38A24
:1021B000F18A41016FE00F8A03C7518B137707043F
:1021C00015CB83A6018B03A7C1861389018B158FBD
:1021D00093064006E3FFE6FCB767002083A7C72607
:1021E00099C30145829783A7C1862320F9009307ED
:1021F00000F875BF03C7518B62076187E35B07FA7D
:1022000083A6018B03A7C186158F93064006E3F2D0
:10221000E6FAA38A018A71BFEFE28F813765002059
:102220001305C527EF10B00A6FE0CF82EFE24F80B1
:10223000B76700209387C720D8573764002088D31A
:1022400013674700D8D71189930704259C4F1304BF
:10225000042501CD99C3014582975C4C99C3014582
:10226000829705450D226FD0FFFE99C305458297E1
:102270005C4CF5DB05458297FDB783A7418723209A
:10228000050085CB984363580700DC4798436342B9
:10229000070223AAF18683A7418791650146FD15B0
:1022A0003548B708008098436357070019C223AA2E
:1022B000F1860145828098431313070163480302A6
:1022C0009843137707101DC398431377072019CF3E
:1022D000984341836D8F711718C16379E80019C263
:1022E00023AAF1869C475CC10545828023A0170183
:1022F0000546DC474DBF03A74187B706008014C3DE
:10230000584723AAE1868280EFD29FF283C7518B80
:1023100093F7F70F81E78547A38AF18A03A7C18660
:102320009387C18A09CB98C3B767002083A7072783
:1023300082976FD03FF20547FDB7B767002083A7AC
:102340000727014585CF03A781860DCB1443084796
:102350009387C18A63D206028C43A16689069308DB
:10236000300603A6C1860D8E63E4C800FD1681EA1F
:1023700014438606858214C323A00700828010437D
:10238000E34106FED5BF03A7C186B7670020938748
:10239000871888A3239107002392070098C7A3807A
:1023A00007008280EFD2DFE8B76400201384C427DF
:1023B0005C4041116C001385C4273EC623220400F3
:1023C000EF10E02EB2476C001385C4275CC05C445C
:1023D0003EC6EF10C02D41016FD0DFE7B767002088
:1023E00093878718982319E388C7828098479306B4
:1023F000703E3307E54063F1E602EFD27FE3BA2394
:1024000088C7914663F6E6000145B53F6FD09FE46B
:102410000507BAA3413FDDBF8280EFD27FE12A8466
:102420000145EFF05FF6B76700209387871811C862
:10243000054798B3B7670020094723ACE7226FD060
:102440007FE1A3800700E5BF828003288503630B3B
:102450000802EFD2FFDDFC5D014791C70507420787
:1024600041839C43DDBF83A7050891C70507420749
:1024700041839C43DDBF8146014681450298014569
:102480006FD05FDD0145828001458280EFD2DFD7CA
:102490005C42032A85000329C5000049AA848823D9
:1024A0009C33B289A2075D8DEF10A0719355650032
:1024B00093F5C503B305B0404E85EF20902649E55E
:1024C000DC44984C03DB8900998F63F867014E85E3
:1024D000EF20102C05456FD0BFD64A9A4E8903567F
:1024E000A900B30A8A40832B490063F4CA045686C4
:1024F000DE852285EF60F0168357A90098443304E7
:1025000044413E942286B3855B013A85EF607015A5
:102510002A9403290900E31409FC4E85EF20502773
:102520009C4C80C8DA979CCC9C4093E747009CC0A9
:1025300055B72285DE85EF60D0128357A9003E94FF
:10254000E39957FD8044F1B7014571B771CAEFD2E5
:10255000BFCB832BC5001C4D035B8600BA8AB387B3
:10256000FB40368A32892A8463F767013285EF207F
:1025700030226FD0FFCC1C450449B289BE9B03D6E4
:10258000A900338C9B4083AC49006377CC066286FC
:10259000E6852685EF60F00C83D7A9001844B38444
:1025A0007441BE942686B3858C013A85EF60700B2A
:1025B000AA9483A90900E39409FC4A85EF20501DE1
:1025C000032884036305080483451A0083470A002F
:1025D0001448A205DD8D83472A005A875686C20714
:1025E000CD8F83453A002285E205DD8D02981C449B
:1025F000232C04001CC8B5BF2685E685EF60700655
:1026000083D7A900BE94E39687FB04445DB7184CBA
:102610001C4004C85A9793E7470018CC1CC091BFD0
:1026200082801C49F1C7EFD23FBE328AAE842A8431
:1026300055CA832A85005845835B86003289BA9A39
:10264000C20A93DA0A019399070193D90901338BDE
:102650003A410356A900420B135B0B01032C4900BE
:102660006376CB065A86E2853E85EF60807F03570E
:10267000A9001C44B3056C0133075741BA99C2093C
:1026800093D909013E854E86EF60A07DB3073501E1
:1026900003290900E31909FA184C1CC852855E97F2
:1026A00018CC18401367470018C0EF20700EFE3892
:1026B000184C2685B38B77415C44239B7403998F18
:1026C000DEB4EF20706701456FD09FB73E85E2858D
:1026D000EF6020790357A900B307E500E31A67FB11
:1026E0001C447DB70145EDF22E85EF30002CE9BF8B
:1026F0007D558280EFD2DFB32E84B7250000AA84F7
:10270000938525622285EF20B072B72500002285CF
:102710009385A544EF203072B72500002285054639
:1027200093858548EF20F0719C20014593E7870051
:102730009CC06FD03FB219C93305A040B1679387E1
:10274000C7BE1375F50F3E95082182800145828032
:10275000EFD21FAE9307C003B387F50237640020A2
:102760001307C4142A89AE841306C00381451304D9
:10277000C414BA973E85EFD0BFAE630709001306B5
:10278000C003CA85EF60E06D9305C003B385B40252
:10279000A2959C459CC9DCC96FD0DFABEFD2BFA727
:1027A0002A8A376500204111AE89B284814561468D
:1027B0001305451936C6EFD0BFAAB24637640020CC
:1027C0001309C420B68519461305C900EF60606976
:1027D0001146D2851305C420EF60A0681146CE854E
:1027E00013054900EF60E0671304C420A1E0B707B8
:1027F0000001FD171CC4814483C7418B63CFF402E1
:10280000EF10E03385475CD01567B76700209387EA
:102810000720130707E298C31167130787A9D8C3D6
:10282000254798C7014541016FD03FA21146A685B3
:1028300013058400EF60E0627DBF93F5F40F01455E
:10284000EFF01FF185044DBF1841B7670020938753
:10285000072098C35841D8C3184598C78280185597
:10286000B7573412938787676318F710EFD2BF9A70
:102870001C512A8425456389070E376900201306F9
:10288000400481451305C920EFD09F9DB764002007
:102890001306C002814513850425EFD07F9C1306E3
:1028A000C002A28513850425EF60A05B93890425EF
:1028B00003A749014A869387042525EBA56603D71C
:1028C000060C9386060CAE222E97CE22F6222E9769
:1028D00036979316270163DB0608D8CBD84B93565F
:1028E000E700FD8A89EAB746F8FFFD16758FB7063F
:1028F0000500558FD8CBD84B93563701FD8A89EA0E
:10290000B746F8FFFD16758FB7065000558FD8CB28
:10291000D84B9316670063CA0600B70600FEFD1683
:10292000758FB7060014558FD8CBD85311E73727CA
:1029300000001307A727D8D3D44B014513D7E600CF
:102940007D8B238AD18A9307C62098CF13D736016F
:102950007D8B130620033307C702D8CF1397660079
:10296000635407000947B8C36FD03F8EF976FD1650
:10297000758F8966558F95B71305F00F82805D4579
:10298000828003C6418BB76700209386C714014736
:102990009387C7146317E60081476313F702014565
:1029A000828003A807036317A80009C50545EDD970
:1029B00098A1828005071377F70F9387C703D9BFC4
:1029C000D05A6319A60019C50545F9D993E707F848
:1029D0009CA18280850793F7F70F9386C60375BF86
:1029E000EFD27F83376900202300050003C7418BA6
:1029F00041119307C91481441309C914631797003F
:102A00001305000241016FD05F849387C70383A63B
:102A100047FE63810618850493F4F40FC5B7B767C2
:102A2000002083A7C7206C003EC6EF20D0091146C6
:102A30009305C4026800EF60C0426C004E85EF2031
:102A4000700A1306C0033386C402B72500009385BD
:102A5000C5484E854A96EF20D00A95473765002035
:102A60006C00232834031CD01305C527EF00304425
:102A7000A6852285EFF0DFCD014569B70947639050
:102A8000E70AEF50F00FAA8963030512930AC40204
:102A90001146D6856800EF60C03C324A370500F029
:102AA000EF104015337AAA00370500E0EF108014CC
:102AB0006300AA04B76500209385C5276800EF105E
:102AC000805B1DE5B767002083A7C72012346C0028
:102AD0004E853EC6EF5080671DE1D68511466800E1
:102AE000EF60203852306C004E85EF50300139A035
:102AF0001234938581844E85EF50406501C5EFF017
:102B00009FC309B71306C0033386C402B72500006C
:102B10009385C5544E854A96EF5030063DBF0D470C
:102B200013051002E390E7EEEF30601C5C441234B2
:102B30006C005EB9B767002083A7C720AA893EC68C
:102B4000EF20300E2A8A11C54E85EF20106652857F
:102B50007DB79305C003B385B4024E85CA95EF20B7
:102B6000F02CB72500004E8593858544EF20102D6D
:102B70009547A685228523283403232A34031CD0B5
:102B8000EFF01FBD376500206C001305C527EF006F
:102B90001032DDB504A1DC4DC4C12E84E39007EEF4
:102BA00003458402EF20207FAA89E31A05E6454504
:102BB00091BDEFD2EFE74EB52A84EF20F01709E977
:102BC00003A7818B83A7C186998F5147637BF70049
:102BD00083476402228593E727002303F402EF4032
:102BE000704705456FD00FE783C7418B6376F504C7
:102BF0001307C0033305E502B76700209387C714A6
:102C00003E95584D232C050050C50CC50CC94CC928
:102C10008D476313F702085905C15A3993371600D7
:102C2000631CF700EFD2CFE093150601C1814EB9C6
:102C3000EFF03FF86FD00FE28280EFD2CFDD930745
:102C4000C003B307F502B76400209386C414328A28
:102C50005D44B697905395466318D60A83260A00BA
:102C60006944DDC223200A0003AB8700D04703A9D3
:102C70008701AA892E879384C414C04B329B63F3C7
:102C800026013689B30A8B4063F32A0901CB3A85C2
:102C90005686A285EF60E01C330755019307C003F9
:102CA000B387F9024A9433046441A69783AA870044
:102CB00011C72286D6853A85EF60A01A56949307ED
:102CC000C003B387F90223202A01A697984FC0CBEF
:102CD0003309274123AC2701631809009847D8CB53
:102CE00098CB98436D9B98C39307C003B389F902AF
:102CF0008D470144CE94D84C6318F7006316090041
:102D0000CE248858EFF0FFEA22856FD00FD411C788
:102D10004A86A2853A85EF60C0144A94E3912AFB63
:102D20009307C003B387F902A697804749BFEFD244
:102D3000AFCD00422320060055C4AA876945D9C5F6
:102D40001305C003B387A702376500201305C51418
:102D5000B76A00208144AA9703AB07039387CA2070
:102D6000BC43938ACA20898B99E39304700C930720
:102D7000805C63F487001304805C931C0401328A36
:102D80002E8993DC0C01130C800C0146E68501456D
:102D9000EF20E024AA8929C948412286CA8523AEAA
:102DA0000A02EF60000CCE855A85EF20C05DAA8B29
:102DB0004E85EF20E01D83A7CA0399CB8504C2048A
:102DC000C180EFF06FC5E39284FD4D456FD04FC7D2
:102DD00063D60B005E85EFF01F96CDBF23208A00DF
:102DE0000145EDB76945DDB74545CDB7EFD2CFC158
:102DF00000422320060055C4AA876945D9C513059A
:102E0000C003B387A702376500201305C514B76A4E
:102E100000208144AA9703AB07039387CA20BC43D1
:102E2000938ACA20898B99E39304700C9307005C02
:102E300063F487001304005C931C0401328A2E891A
:102E400093DC0C01130C800C0146E6850145EF2054
:102E50000019AA8929C948412286CA8523AE0A02D7
:102E6000EF602000CE855A85EF502048AA8B4E8512
:102E7000EF20001283A7CA0399CB8504C204C18046
:102E8000EFF08FB9E39284FD4D456FD06FBB63D6F1
:102E90000B005E85EFF03F8ACDBF23208A000145FD
:102EA000EDB76945DDB74545CDB7EFD2EFB503299D
:102EB0000600232006006306090EAA87AE8A69452C
:102EC000A1C91305C003B387A70237650020130506
:102ED000C514328B014AAA97845BB767002083A789
:102EE000C724898B99E3130A700CB7690020014449
:102EF000130C900C914C938909257D5D050A420ABB
:102F0000135A0A0163188A0183270B00C9CB0145B4
:102F10006FD00FB39C4863989709EFF0EFAF83D65B
:102F2000640799E24545EDB783A70901858B99E3CD
:102F3000E3EA26FF03A7490063F3E6003687CA8B5E
:102F400063732701BA8B13960B014182854691E387
:102F50008146D6852685EF40B0052A8426850DE476
:102F6000EF40500F83270B00330979412A84DE9705
:102F70002320FB00DE9AE30C09F883A70901858B67
:102F8000B5FFEFF04FFB69B76319A401EF40900C58
:102F900083A70901858BBDF371B7EF40B00B228584
:102FA000CDB76945B5B75D45A5B79307C003B3076E
:102FB000F502376700201307C714BA9703A8070262
:102FC00015476307E800DD47232006003E85828021
:102FD000EFD20FA6D84F8D476318F700EFF0FFEC44
:102FE000AA873E856FD00FA701E7EFF05FD4CDBF72
:102FF00089469307A00FE316D7FEEFF03FDFCDB76A
:10300000EFD20FA3A147AA840021638AF50263ECE3
:10301000B70085476381F502894713642400638EF6
:10302000F5006FD02FA3C147638EF500930700040E
:1030300013640404EDB71364140080C0DDB7136497
:103040008400E5BF48591364040165D9EF20F015E9
:10305000EDB7EFD2EF9D41119305F100AA84A307CC
:103060000100EFF01F9215C5808793178401E18757
:1030700063D407021374F4071307C0033304E40294
:10308000B76700209387C7143E94232A04022320A5
:10309000040241016FD00F9C83C7418BE37BF4FE98
:1030A0001307C0033307E402B76600209387C614F2
:1030B0001389C614BA97D04F0D47E31CE6FC842849
:1030C0001306C00381453E85EFD08F99DD1493F43C
:1030D000F40F0547636D9700C145EFF07FF293074A
:1030E000C0033304F4024A94232804024DB7182184
:1030F0001367070418C1E5B73767002083C6418B03
:103100001307C7148147638FF6001307C70303260D
:1031100047FC11CEB76700209387C720D8571367A5
:103120000701D8D7B767002003C5872382808507AA
:1031300093F7F70FC9BFEFD2AF8FEFF0FFFBB76781
:10314000002023AC07226FD0EF9083C7418B6371BF
:10315000F5029307C0033305F502B7670020938794
:10316000C714AA9798431375F70F118B98C38280E1
:1031700001458280B767002003C5C722828093077C
:10318000C0033305F502B76700209387C7143E9547
:103190001C5995CF145115475D45639BE6028589FF
:1031A0009A279DC1136787009AA7376700201307E6
:1031B0000720144323A0D70A5443184723A2D70A51
:1031C00023A4E70A014582805D9B9AA7E5BF5D4580
:1031D0008280EFD2EF851304C00333048502376584
:1031E00000201305C51441112A9404585D458DCC67
:1031F000185095475D456319F7025C54232A040271
:10320000B72600003EC652309386466F6C00268576
:10321000EF20D0312A8901CD2685EF2000794A851B
:1032200023200402EFF02FD141016FD0AF8283C77A
:103230006402014593F7F7FB2383F402F5B7B76700
:10324000002003A54726358105898280B7670020C5
:103250009387C72005474111C8CB94DBD0DB8CDFB7
:10326000D8D741018280B7670020054723A4E7240F
:103270008280EFC2FFFBB767002003A6C72583A6A5
:103280000182131786016187630B051483C7C18B05
:10329000614889483388070336980323C8006310C0
:1032A0001315034315008348050003280800220373
:1032B0003363130183482500C20833E36800834861
:1032C0003500E208B3E86800639B0811E207E18774
:1032D0003E856FC03FF8B3885702B69803AEC8006A
:1032E0006319060763170E06139887011358884160
:1032F000850793F7F70FE3E0C7FE6317060193F81E
:103300001500FD57E38608FC8989FD57F1F1937795
:10331000F80F636BC8009377F30F6367C300FD5723
:10332000E378C7FA9377F70F61473387E702BA96D6
:1033300023A6060001CD103118212206598E38210E
:103340004207598E38316207518F98C22388060090
:103350000DA863147E040DC9834E1500034E0500AD
:10336000A20EB3EECE01034E2500420EB36EDE0177
:10337000034E3500620E336EDE0183AE0800631526
:10338000DE01238EF18A99B783C80801E3E2E8F7EA
:10339000139787016187468FA1BFE31B8EF415C584
:1033A000834E1500034E0500A20EB3EECE01034E70
:1033B0002500420EB36EDE01034E3500620E336E01
:1033C000DE0183AE0800E30EDEFB83C80801E3E103
:1033D000F8F31393870113538341C68F11BF3A88C3
:1033E0003A83814F014F8147E1428543094421B728
:1033F000EFC27FE298319C2122075D8FBC21C2077A
:103400005D8FBC31E207D98F58416319F70005453C
:10341000EFF0AF80D9573E856FC03FE3E5DF2E84E4
:103420002A89AA852285B289368AEF00D0447DF1A7
:103430001C300420370500F0A207C58F2420C204E9
:10344000C58F2430E204DD8CEF00C07AE98C3705AB
:1034500000E0EF00207AE38FA4FAD2852285EFF016
:103460005FE1AA87E34905FAE147B307F50203A53F
:1034700001823E9589475CC5232A2501938759001F
:103480001307950094237D1714B39386F7FF639673
:10349000F900230805008147BDBFB687E5B7B767C8
:1034A000002003A5C72503A801820147E14809437D
:1034B0000546130EF00E6363A7008280B306170360
:1034C000C2969C2ACC46850793F7F70F9CAA63986F
:1034D0006500636AFE0005071377F70FE9BFE39CF9
:1034E000C5FEE37AF6FE23A60600F5B721CDEFC2AE
:1034F0003FD4C4412A84DC34C824A2075D8DEF0088
:10350000606BA16793870710938524016304F5001E
:103510009385E400D835DC2522075D8FFC25C207A2
:103520005D8FFC35E207D98F5840B98F1844F98F69
:1035300081EB814613866400B1052285EFF05FEBD5
:103540006FC05FD1828063030516EFC2DFCC3A26DD
:10355000930790024111B2892E8AAA8463E8E7009A
:103560004E85EF10F02241016FC03FCE0329460087
:103570008347D9000345C90013042901A2075D8DC3
:10358000152DA167938707106304F5001304E90064
:10359000834A14001C200545A20AB3EAFA00192D3B
:1035A000E390AAFC834A54005C2013054060A20A01
:1035B000B3EAFA000125E395AAFA834A34003C20D5
:1035C0000565A20A13050580B3EAFA00E523E3992D
:1035D000AAF8930AE4001146D6856800EF507008F7
:1035E000D44013068400ADC2183C1C2C22075D8F0A
:1035F0003C2CC2075D8F3C3CE207D98F6396F604F2
:1036000085466C002685EFF0BFDE054B7C306820D8
:10361000A2075D8D45238547630FF5028947E311B6
:10362000F5F46C002685EF102033B767002003A760
:103630004719E30707F293874719DC47E38207F24C
:103640006C002685829729BF81466C002685EFF0A5
:103650003FDA014B65BFE3050BF00945A12B68A0DC
:10366000218168B01146D68513058401EF50607F33
:103670001146938544005685EF50A07E3504150908
:103680009547FD5618207D197D1438B4A300E90034
:103690003307FA001823FD1718B0A303E900E393DA
:1036A000D7FE9C4CCE85268582975DBD8280EFC279
:1036B0009FB62A89AE8901469305A0020D45EF10F9
:1036C00010127D544DC94041AA840545E52148A802
:1036D000218148B89306E902930754001547938562
:1036E0000184138681837D5503C80600FD17FD16EE
:1036F000A38B07013388E50003480800A380070374
:103700003308E600034808007D17A380070103C8BB
:103710001600A3830701E319A7FC1146930549008E
:103720001305C401EF50E073CE8511461305640202
:10373000EF5020730545BD2968A48569218168B4CF
:1037400013850980852908A8218108B813054060E0
:10375000952128A8218128B813856980A12983276C
:10376000890148A4218148B4A6854A8582972A8484
:103770002685EF10F00122856FC03FADEFC2BFA9D3
:103780002E842A89AA852285B289EF00D00E01C530
:1037900059556FC09FAB1C300420370500F0A207BD
:1037A000C58F2420C204C58F2430E204DD8C99210A
:1037B000E98C370500E03D29E38CA4FC18301C207F
:1037C00022075D8F3C20C2075D8F3C30E207D98F16
:1037D000E1D385452285EFF0DFA9E34C05FAE14707
:1037E000B304F50203A70182138A01828547269755
:1037F000544799EA5CC7EFF01FA7A2854A85EFF00E
:103800001FEBE38809F831A0E387F6FE7D55E384DA
:1038100009FE83270A000947A697D447E39BE6F6EB
:1038200003A44900138797001306E9029306540086
:103830008D070C237D17FD168CB20C227D16ECB281
:10384000E319F7FE056513050580AD268327890179
:1038500048A4218148B4CE854A8582971DBFEFC216
:103860009F9BAE8441112A89B94526853284EF1089
:10387000406B631E0510CA852285EF00C07F63156B
:1038800005101C3083490400370500F0A207B3E798
:10389000370183492400C209B3E7F90083493400A2
:1038A000E209B3E9F900B926B3F9A900370500E048
:1038B00091261020143038203C30639CA9081395C1
:1038C0008600518D4207598DE20785456C845D8DD8
:1038D0009305E0054C85392E41811375F507C885A0
:1038E00008301C2022055D8D3C20C207C98F28307E
:1038F00062055D8D01262181488608301C20220545
:103900005D8D3C20C207C98F283062055D8DDD24A6
:10391000C8863400C04095477D5613075400B385D0
:10392000F6008C217D170CB3B305F90083C5950211
:10393000FD176CB3E395C7FE0565130505809D2C47
:103940008327890148A4218148B4A6854A858297A6
:103950000DA8A206D18E4207558FE207D98F032703
:103960004900B98F03278900F98F99C78327C900B8
:10397000715581CB1304C9002686A2854A85EFF0D4
:10398000FFDF41016FC07F8C9386818361B77955DA
:10399000CDBFEFC2FF8944412A842E89DC34C8247C
:1039A000A2075D8D012CA167938707106317F500AF
:1039B0009C388828A2075D8DF52A9307058091CB56
:1039C0008567938767806302F5042285EF10405C6A
:1039D00015A8A2854A85EFF07FB1DC34C824A20780
:1039E0005D8DC92AA16793870710B9456313F50058
:1039F000C945B305B0402285EF10A05279F5CA85BC
:103A00002285A92401456FC0FF842286930599026F
:103A10004A85EFF05FB3FDB7EFC29F81B767002023
:103A20009387C71A5CD193075006A309F502930741
:103A3000E006230AF502B74700009387E7855CC9D3
:103A4000B74700009387C7A71CCDB76500209947EB
:103A50002A842304F502232E050019469385552A4E
:103A600013059502EF50E03F9307C05D1EB8930722
:103A700030032309F40201456FC0CFFDEFC24FFBB5
:103A8000B1642E8493841435EFF0CFEE118915CDF7
:103A9000FD1485CCEFE07F8A2A897DD5AA878144F1
:103AA00001E8CA852685EFE03F8601456FC08FFAA1
:103AB00032244C403E85EF50C03A3A240040BA943C
:103AC000C204B307E500C180E1BF5155C5B7EFC2DD
:103AD0008FF4B767002083A74727AA891385018C35
:103AE0009384018C82978C40A9C983C7518B13841E
:103AF000018C93F7F70F81E78547A38AF18AC20506
:103B00000D46C1810D454440EF10604D2A8915C511
:103B10002A8432244840A685EF50A0343E24004039
:103B2000BE9465F8EFE02FFD83A70901CE854A8595
:103B3000829701C54A85EF10A0456FC00FF1EFC213
:103B40002FEF41113764002002C202C402C6EF0009
:103B5000D0781305C427B7650020194693858521C1
:103B600013059502EF50E02FB767002003A7C72089
:103B70009387C7201305C4273AC29847DC433AC449
:103B80003EC623A0018E23AE018CEF10A03837482B
:103B90000000B7470000740030004C00130828995B
:103BA000938787A101471305C427EF100031410116
:103BB0006FC04FEA9317850021815D8D42054181D9
:103BC00082809317850021815D8D4205418182802D
:103BD0001357850193178501D98FB706FF00131777
:103BE0008500758FD98F4167130707F02181798D83
:103BF0005D8D8280EFC2CFE3EFF09FFD6FC08FE558
:103C0000EFC20FE303A4018EAA8401EC03A5C18DCA
:103C100011C5EF10803019C103A4C18D22856FC07A
:103C20006FE32285EF10602F05C198309C2022079A
:103C30005D8FBC20C2075D8FBC30E207D98F584032
:103C4000B98F1844F98FF9DB0040C1B7EFC2CFDB61
:103C50004041AA84AE891C300820A2075D8DEFF098
:103C60005FF631814205418191476306F500268563
:103C7000EF10003231A41C300820A2075D8DEFF058
:103C80005FF419813C30137AC5032820A2075D8DAB
:103C9000EFF03FF3BE242A89E3EB47FD9E24E3E8DF
:103CA000A7FCD2852285EF40503771F1CA85268561
:103CB000EF10E046370500F0EFF0DFF3370500E0E6
:103CC000EFF05FF34E89054B930B04014A85EF102B
:103CD000C02411E563130B12032909000DA29307F9
:103CE0004900EDDB83264900F5D618381C28220749
:103CF0005D8F3C28C2075D8F3C38E207D98F638215
:103D0000F604CA855E85852E0DED1C38834A0401B4
:103D1000370500F0A207B3E75701834A2401C20A1E
:103D2000B3E7FA00834A3401E20AB3EAFA00EFF09B
:103D30007FECB3FAAA00370500E0EFF0BFEBE39B9E
:103D4000AAF858345C2422075D8F7C24C2075D8F5B
:103D50007C34E207D98FB9C3CE851305C400212E68
:103D6000E31705F05C34034AC400370500F0A207EE
:103D7000B3E74701034AE400420AB367FA00034A83
:103D8000F400620A336AFA00EFF0DFE6337AAA0041
:103D9000370500E0EFF01FE6E30BAAECE30909ECBE
:103DA00003497400682022093369A90011657D1553
:103DB000EFF05FE03375A90011C52685ED26AA84D2
:103DC00061C14041CE852685EF10604955E91C341C
:103DD0000824A2075D8DEFF0DFDE1375F50F99471C
:103DE0006303F50AC5476309F50885476312F50AB9
:103DF000CE852685EF40606261A003A9018E631421
:103E0000390103290900014BE31209EC1C34082491
:103E1000A2075D8DEFF0FFDA1375F50FC547631E3E
:103E2000F500B3074401A823BC33A2075D8DEFF072
:103E30005FD993074004630DF502854A1C340824BA
:103E4000A2075D8DEFF0FFD71375F50FC547631916
:103E5000F508229A83473A0003452A00A2075D8DA0
:103E6000EFF03FD69307C076631CF5064E893DB749
:103E7000E39809F2814AD9B7CE852685EF408009BB
:103E800001456FC0EFBBCE852685EF201022CDBF48
:103E9000CE8513050401C522E31B05DC1C3803494C
:103EA0000401370500F0A207B3E727010349240105
:103EB0004209B367F9000349340162093369F90023
:103EC000EFF05FD33379A900370500E0EFF09FD220
:103ED000E30FA9D8C0C089452685EF40007941BBD2
:103EE000E3910AE669B3EFC22FB2AA894289630F50
:103EF0000612AE8AD1453A8AB284B68B3E8BEF1059
:103F0000400279576311051203A44900A20B1C3427
:103F10000824A2075D8DEFF0DFCA1375F50F336536
:103F20007501EFF03FC91357850018B408A4EFF0EE
:103F30005FC9218142054181220533656501420542
:103F40004181EFF03FC798309C2008A422075D8F85
:103F5000BC20218108B4C2075D8FBC3011651305F8
:103F60000550E207D98F13D787001CA818B813D7BC
:103F70000701E1833CB838A83365AA00EFF09FC37E
:103F800008A0218108B003D58900138A818CEFF045
:103F90007FC228A0218128B003550A002303040012
:103FA000A3030400EFF01FC183570A0048A021813A
:103FB000850748B02310FA0063810A0203C71A007C
:103FC00083C70A0022075D8F83C72A00C2075D8F5F
:103FD00083C73A00E207D98F99E713074900814761
:103FE00019C38327490013D787005CA458B413D79B
:103FF0000701E18378A47CB423050400A305040031
:10400000D1452285EF40700128A4218128B483572F
:10401000090385C303D7890063FDE7002686CA85A7
:104020004E8585232A873A856FC08FA14441C104FC
:10403000F9BF832749012686CE854A858297DDB759
:10404000EFC20F9F01112A8432852ECE36CC3ACA98
:104050003EC832C6EFF0DFBA09CDC2475247E2464A
:104060003246F2452A882285EFF0FFE705616FC0EE
:104070006F9E7155E5BF18311C2122075D8F3C21D1
:10408000C2075D8F3C31E207D98F9386F7FF7557E2
:104090006366D70203C725030145098B0DC3D841C9
:1040A000630FF70094453D8F758F11EB13C5F6FF35
:1040B000E98F3385A740133515008280054582803E
:1040C000EFC28F9403A4C18CC544014B1389C18CEA
:1040D00019E06FC0EF96FD1493F4F40FFDD87C3C0B
:1040E000032C040091C7FD177CBC228B6284CDB7E2
:1040F00083294400814A03A549005C315821A20765
:10410000D98F85EF18311C21514622075D8F3C2144
:1041100093058400C2075D8F3C31E207D98F5CC0F4
:10412000EF40305485454E85EF4060554E85EF1089
:104130008004AA8A4E85EF00B06583294400639607
:104140000902032709001C40631CE4042320F90032
:10415000A2851545EF00B0461387A18C1E235A8413
:10416000B38A57412310570149B703A749004E8529
:104170001C33034A0700A207B3E74701034A27009D
:10418000420AB367FA00034A3700620A336AFA0048
:10419000EF00707EAA9A4E85EF00905FD28945B7F6
:1041A0002320FB0075B7EFC22F8644412A899C303B
:1041B0008820A2075D8DEFF0DFA019811375C5037C
:1041C000D1476312F526FC30E820A2075D8DEFF0A1
:1041D0005F9FBC302A8BA820A2075D8DEFF07F9EE9
:1041E0009C30AA8C8820A2075D8DEFF09F9D2A8CC1
:1041F0004A85EF005078B767002083A7072603D7CA
:10420000A18C2A8D8D832A97FD8B9389A18C63ECD9
:10421000E72003A4C18C814A138AC18C1DE815458F
:10422000EF00F0372A8463000520714681451305AD
:104230004400EFC0EF828D477CBC83270A00232017
:104240008A001CC05146A68513058400EF407041CA
:1042500095ACD834DC2422075D8FFC24C2075D8F27
:10426000FC34E207D98F58486316F70298389C2827
:1042700022075D8FBC28C2075D8FBC38E207D98F4B
:10428000184C6319F700DC30D4205A24A207D58FCC
:104290006306F720A28A004051B7CC4203C85500FC
:1042A00003C34500220833686800637C060D93D57C
:1042B000860094A38CB393D50601E182ACA3B4B37A
:1042C000630E072A74336C23A206CD8E6364D61462
:1042D0006362A814935689002300270114B39356F0
:1042E00009011359890134A3A3012701782C014B3B
:1042F000058B630F0718638D081858404443D83066
:10430000D4202207558F6315071894339823A206EB
:10431000D98EB8234207D98EB8336207558F61E72B
:104320005E2C03C904005146D1075EAC9C30930556
:1043300084002685A207B3E7270103C924004209A8
:10434000B367F90003C9340062093369F900EF402B
:1043500050314A2CEFF01F86A8A02181A8B02383FA
:104360000400A383040023850400A3850400D14531
:104370002685EF40804AA8A42181A8B4032B4400DD
:10438000D5A063090609F43103C36500A206B3E6AC
:1043900066006361D60801CB742378332207558FFA
:1043A0006303E8008148983194212207558FB42196
:1043B000C206558FB431E206D98E2E8765AA935670
:1043C00089002300270114B3935609011359890169
:1043D00034A3A3012701742378332207558FE30701
:1043E000E6F0814821B75443EC23F833DC32D02285
:1043F0002207A2074D8FD18F631AF7029C329822B1
:10440000A207D98FB8224207D98FB83262075D8FD1
:10441000B68731B74A85EF00105683D70900338538
:10442000A7402390A9004A85EF009036014B8DA04C
:10443000B1554A8583244900EF00B02ECA855A85BC
:10444000EF0030559C3003C90400A207B3E72701F1
:1044500003C924004209B367F90003C934006209A3
:104460003369F900E31609FC03270A001C406314B2
:10447000E4022320FA00A2851545EF0050145A8566
:10448000EF00704F83D709003385A7402390A90020
:104490005A856FB0FFDA23A0FA00F1BFFC30E820A4
:1044A000896BA2075D8DEFF0CFF1FD1B33757501B0
:1044B0004205418101E96A24EFF0AFF033757501DF
:1044C000E31205D883D709003E9D2390A901FC3053
:1044D000E820A2075D8DEFF0CFEE9317250163C2B0
:1044E000070213153B017C2C4D810E05135C6C00FB
:1044F0006695137CCC0393E71700330585417CACAC
:104500004AAC83244900BC30A820A2075D8DEFF09F
:104510004FEB9C302A8B8820A2075D8DEFF06FEA6D
:10452000FC30AA8BE820A20793DB6B005D8DEFF0D7
:104530004FE94E054D81131635003305CB0013FBB3
:10454000CB03832749003305654142051357860095
:1045500041815440D8B313578500F8B32380070036
:10456000A380070023810700A3810700D0A3E8A34D
:1045700085480147E39306D2E31307E4232224018D
:10458000B5B3EFB2FFC7032C4500011132CA034790
:104590007C00AA8D03456C00220783DB0503598D3F
:1045A000AE8CEFF00FE28966B377D500138ACBFEAD
:1045B000A146334ADA0283D48D0009677D173EC6CF
:1045C0003379E500B1144209C20413590901C180CD
:1045D0000144514D3ACC420A135A0A0193163A004B
:1045E00093970601C1833EC89387DBFE3ECE89E4E4
:1045F000014505616FB09FC4E247A68A337BF9008D
:10460000B24733EB6701F24763C6F400C24A8967D9
:10461000336BFB000146D1450945EF00501CAA89C8
:1046200039C948415146E285EF40B00303A64D0029
:1046300083AB49006A9623A2CD0003D6AD00B30632
:10464000A6412395DD00568D63090D0403D4AD000A
:1046500063738D006A844204418001E483AD0D00E0
:10466000E5B7814509460D45EF007017AA8511E5AC
:104670004E85EF00F0117D55ADBF03A64D0002A59C
:1046800022A550C14E85EF00D030B3068D40139D5A
:104690000601135D0D01E3130DFC5A85EFF08FD178
:1046A0002383AB002181A383AB0013854A0142051C
:1046B0004181EFF02FD02381AB002181A381AB009A
:1046C000D14523850B00A3850B005E85EF40E014E8
:1046D00003A74C0152462385AB002181A385AB0083
:1046E000CE8566850297B384544152994E85C204A3
:1046F0004209EF00F009C18013590901228DC5BD9F
:104700003C296385B7002CA9A309050082805E2D92
:10471000184DB306F7002388B60E93862700850749
:10472000C207C18356ADBA972388C70E82805A2D1F
:104730001C4D9306170056ADBA972388B70E82809A
:104740005E2D184D13D68501B306F7002388C60EDB
:1047500093861700C206C182BA9613D60501238834
:10476000C60E93862700C206C182BA9613D685006C
:104770002388C60E938647008D07C207C18356ADB6
:10478000BA972388B70E828015C15E2D184D130687
:1047900030049386170056ADBA97FD562388D70E7E
:1047A0005E2D6376F60093F6370091E28280938661
:1047B000170056ADBA972388070EDDB7630C0516B0
:1047C000EFB21FA703290502DD5763020916AA8469
:1047D0000146930540130145EF007000232AA9000C
:1047E0002A87FD5763050514834639019387418263
:1047F00081E69443850694C3404388438547232C30
:1048000089002320A9001CA01CB099473CA0A3014B
:104810000400EFF0EFBB9357850048A05CB09357BE
:10482000050161817CA068B0032489012947230424
:104830000400A304040023050400A30504002306C8
:104840000400A306040023070400A3070400834711
:1048500029016388E700F11793F7F70F0547636AAB
:10486000F700DC205CA4DC305CB4FC207CA4FC30D1
:104870007CB423080400A308040023090400A3094E
:104880000400230A0400A30A0400230B0400A30B62
:104890000400230C0400A30C0400230D0400A30D4A
:1048A000040083C584028147414613970701418371
:1048B00081466376B7003387F40083469702330757
:1048C000F40054AF8507E392C7FE1307C4029307B1
:1048D000C406230007000507E39DE7FE1307C40E87
:1048E000238007008507E39DE7FE375582631305A4
:1048F0003536EFF0EFAD935785002306A40EA306DF
:10490000F40E032689019357050161812307F40EF4
:10491000A307A40E231E0900814713074004B30612
:10492000F6002388F60E8507E39BE7FE81473E8568
:104930006FB05F92D9573E85828011CDEFB25F8F05
:10494000005101C8484811C1A125232A0400232C85
:1049500004006FB03F90828063000518EFB25F8D56
:104960000051630904163828A1476315F7169831DA
:104970009C2122075D8FBC21C2075D8FBC31E207FD
:10498000D98F18546398E714AA84B1452285EFF0B3
:104990003FD72685EFF09FE2631905120546930580
:1049A00050032285EFF0BFD691452285EFF03FD826
:1049B0001146930520032285EFF07FD50854EFF0D0
:1049C0006FA3AA852285EFF0BFD711469305600338
:1049D0002285EFF0DFD34850EFF0CFA1AA852285E2
:1049E000EFF01FD61D469305D0032285EFF03FD28E
:1049F0005E2C184C05462285B306F7002388C60EA8
:104A0000138627004206418252AC9386170083C565
:104A10009402C206C182BA962388B60E93863700E6
:104A2000C206C18256AC83C5A4023A96BA96230840
:104A3000B60E138647004206418252AC83C5B402CB
:104A40003A962388B60E93865700C206C18256ACAA
:104A500083C5C402BA962308B60E138667004206C1
:104A6000418252AC83C5D4029D0732972388B60E8B
:104A70005EAC83C7E4022308F70EEFF0FFD04E2CA4
:104A800048489385050FC205C181512D0347840213
:104A90001C4C4C484840D8A70347940203A9440043
:104AA000D8B70347A402930630041386C184F8A73D
:104AB0000347B402F8B723A204002687EF30A072A0
:104AC000268523A22401EFF05FE73C3885073CB838
:104AD00085477EAC6FB00FF88280EFB26FF511287A
:104AE000BD24B767002083A7471F91C382976FB08B
:104AF0006FF6373700201307B75C719B23AAE18C50
:104B0000B767002083A78725231107008D07F19B36
:104B100093960701C182BA9716A32302070023AC1C
:104B2000F18C0546D0A396A3B6A323A8E18C82807E
:104B300049C183A7418D636EF50683A5818D637A94
:104B4000B50683A6018D130685FF230E05FE138788
:104B5000018D6373D60010C3835685FFBE96630430
:104B6000D60203C8460063100802638ED5000C43CA
:104B70006393B60010C38E22231CB5FE9622B305A4
:104B8000F640BE96AEA28355A5FFB386B70063027A
:104B9000D60203C84600631E0800032807006313FB
:104BA000060114C3035785FF9AA2035785FFBA97DE
:104BB000AEA382808D05C205C181F199C205C18174
:104BC0003147AE8763F3E500B1473767002003261E
:104BD0008725C207C1830D06719A6360F60A03A791
:104BE000418D636DE50883A6818D6379D5089306B1
:104BF00085FF835885FF998EC206C182938588FF01
:104C0000958DC205C18163EAF5066389F506330314
:104C10001701034843006314080293858600138834
:104C2000018DAE97032E0800C207C183835803008D
:104C3000B305F70063166E022320B80015A0138891
:104C4000470163ED050393858600AE971388018DB8
:104C5000C20703230800C183B305F700E3EE65FC38
:104C600023901501B6A123820500231CF5FE962191
:104C70006306D60036973EA382800145828039C5FF
:104C80001307350042074183719B42074183B146B8
:104C9000BA876373D700B14737670020032687259B
:104CA000C207C1830D06719A01456362F60203A72C
:104CB000018D83AE418D9385018D3303F640B3069C
:104CC000D741C206C182615E63E46600014582800D
:104CD0003385DE0003484500835805006317080646
:104CE0003308DE4046986362F80613834701636227
:104CF0006804A107B697C207C1833388FE0023105A
:104D000018012311D8002302080085461EA154A1D2
:104D1000835608006304D600F696BEA26319A70066
:104D200083A6818D8147502301EE91C398C121054F
:104D3000828085475CA1DDB71A2385477697E5B762
:104D4000E39CE6FEEDD794C1DDB7C686B5BF83A56B
:104D5000818283A6C182B75700209387F780376787
:104D60000020F19B1307472B1385060103D805008C
:104D70002320070001466318C8008906110789052A
:104D8000E396A6FE8280832807000506420623A03C
:104D9000170183D806001CC34182C697E9BF9D470F
:104DA00063EDA700B76700200A059387472BAA97F2
:104DB000884309C5184198C382800145828099C9FA
:104DC00093172500376500201305452B3E951C41A0
:104DD0009CC10CC18280EFB20FC498319C21AA847F
:104DE00022075D8FBC212E84C2075D8FBC31E20794
:104DF000D98F5841639FE70018301C2022075D8F30
:104E00003C20C2075D8F3C30E207D98FDCC06FB019
:104E1000CFC303A5C18E01499309400605C11841BE
:104E2000DC40032AC5006311F7048545EF00504EAE
:104E30009307190093F7F70F63F7290383A7418FAF
:104E4000C5DF984319CFD440631DD7001430182014
:104E5000A206D98E38204207D98E38306207558F86
:104E600098C3DC47F1BF3E8952854DBFEFB24FBCBE
:104E7000411132C636C42A84EFF0FFF53246A2460D
:104E8000814719CA18321C2222075D8F3C22C207B3
:104E90005D8F3C32E207D98F1CC4814799CA983292
:104EA0009C2222075D8FBC22C2075D8FBC32E207C5
:104EB000D98F5CC441016FB0EFB9EFB26FB758CD75
:104EC0001387418E834807004111232205002324C4
:104ED000050023260500230905022320050213836C
:104EE0001800A30A1503232805012A843EC62300BF
:104EF0006700EFF0BFF7B2472285829711E99387E9
:104F0000018E984318C080C3228541016FB08FB4D1
:104F10000144DDBF23AEA18C8280034525030589B2
:104F20008280AA870145A5C5BDC3139605014182AC
:104F3000328863DB05003308C040BA2742081358A3
:104F40000801054563650705D427D84381C60D458B
:104F50006391A6020D8F9386070105456369D70209
:104F6000D8C3BA2701453297BAA79A273A9692A78B
:104F70008280FD16C206C1828548054563E9D800D6
:104F800063D70500B62763E406010D8FD1BF828089
:104F9000EFB26FA801440DCDAA8501440D498549A2
:104FA000FE25FD17C207C183FEA59DE3DC258441D4
:104FB0001D4563882701FD17C207C18363EDF90012
:104FC0001945EFF0DFDF05041374F40FA685E9F847
:104FD00022856FB08FA72E85EFF09FB5EDB7EFB2AA
:104FE0008FA38547630DF50031C589476306F50436
:104FF0008D476305F504014422856FB00FA58144F8
:10500000D104B904C204C1808947B2892E8963E9F9
:10501000C70279CA1945EFF09FD82A8469DD232297
:10502000050023142501231525012320050023064F
:105030003501B5A0D144E9B78144E1B78144E9B76E
:105040008D470144E31AF6FA1D45EFF05FD52A8437
:105050005DD1B3079500CD07F19B376700205CC198
:1050600093070725DC438D04F19893879703F19B01
:10507000230635012320050023142501B38497401E
:105080009309072563739900CA84854726A47EA4E3
:10509000B30499400D4A2289854A634790008547A9
:1050A0007EA4A306040089BF1D45EFF05FCF09E58C
:1050B0002285EFF0FFED81B783A749002316450154
:1050C000232005002320A9009387970306A5F19BC1
:1050D00063F3F400A687130705013EA558C1231703
:1050E00055019D8C2A8955BF93873500138534015E
:1050F000F19B71993E9542054181EFF05FB82A849A
:10510000E30B05EEAA94CD04F19844C123142501C4
:1051100023152501232005002306050049B71E2578
:1051200063FAF504EFB2CF902A84AE84B387F540DA
:105130002E2463E995025C2481EF638B95004C403B
:105140002285818DA695C205C181EFF0BFA62A8474
:10515000084026A406A419C1EFF09FE32320040011
:105160006FB04F8F1A248D8CC2043E971AA4C18051
:1051700000407DBF8280814719E13E85828085079E
:1051800093F7F70F0841CDBF01C57E2585077EA5A2
:10519000828009CD99E182803A859E2516251841A5
:1051A000B697C207C1831EA565FB0CC18280EFB212
:1051B0002F882E84EFF0FFFD2285EFF0FFFC6FB00B
:1051C0006F893DCDEFB22F852A84AE845955ADC588
:1051D0001A249E256362F7060149014A8359A400F7
:1051E000BE24B3894941B387274163C9F904939920
:1051F00007014840CC4093D909015295CA954E8683
:10520000EF3030464E9A3E24420A4E994209135AD4
:105210000A0113590901639447010040014ABE2461
:105220006365F900844099CC0149BA249E24631631
:10523000F7029C409DC35D556FB02F81C20955BFD9
:105240005955828009C801493A241E246314F70085
:105250001C40F5F3C1F40145C5B77DF441B7EFA299
:105260009FFB03294500AA898347990003458900CC
:10527000014AA2075D8DEFE0DF94937AF50F03A456
:10528000818E31099384818E01E401456FA0FFFB7B
:105290001C280145639457035C488DC3084CCA869B
:1052A0004E86A285829719C963080A005C442326AA
:1052B000FA009C4080C05CC4054581495C44228A58
:1052C00071F53E84D1B7814799C998319C21220755
:1052D0005D8FBC21C2075D8FBC31E207D98F1CC135
:1052E00001458280814799C998319C2122075D8FB1
:1052F000BC21C2075D8FBC31E207D98F5CC101457B
:1053000082804CC910CD8280EFA2FFF0AE842A8942
:10531000D1452685B289EFF0DFC015C90146814528
:105320000545EFF0DFCB2A8409E57D594A856FA05A
:10533000DFF1A685EFF0BFE74E85EFE07F8C19ED3A
:105340007159E30594FE2285EFF09FC4C5B7B155AE
:105350002685EFF01FBD71F92684F9BFCA85630564
:1053600009008327090099E3930545008347090154
:105370000347A9008346B9002A884E862285EFE0BC
:105380009FB62A897DBFEFA2BFEA13064500EFF062
:10539000BFF76FA03FECEFA2BFE9AA840145EFF091
:1053A0001FA02A8411CD71468145EFA07FEB9307A2
:1053B00000F83CB49387818E984304A880C358C4F6
:1053C00022856FA03FE983A6C18E03A6419083A5E5
:1053D000418F03D54183938741831307150013152C
:1053E00007011318070141816353080005653687DB
:1053F00019E7328719EB2E8719EF8AA382800358A9
:10540000C701E30CA8FC5847E5B70358C701E306FA
:10541000A8FC5847C5B70358C701E300A8FC584784
:10542000E1BF1C4963960710EFA2FFDE4111AA8479
:10543000328411E62EC6EFF01FF9B2452A8403A785
:10544000418F31E703A7C18E25EB83A9018F138913
:10545000018F4E8759E783A74190CDEB85C19831E5
:105460009C2122075D8FBC21C2075D8FBC31E20702
:10547000D98F89C711462685EF30B01EC2AC23A64E
:10548000340123209900014541016FA01FDC5E2FEC
:1054900063928702104359CED1CD94319C21A2064C
:1054A000DD8EBC21C207DD8EBC31E207D58FD9C3AA
:1054B0006302F608584771B75E2F63928702104364
:1054C00035CAADC994319C21A206DD8EBC21C2072C
:1054D000DD8EBC31E207D58FB1CF630DF60458479E
:1054E000A5B75E2F63928702104329C6A1C59431E8
:1054F0009C21A206DD8EBC21C207DD8EBC31E207F5
:10550000D58F8DCB6308F6025847A9B7DA2F631FF2
:10551000870094319821A206D98EB8214207D98EEE
:10552000B8316207558F94436386E600DC4735B790
:105530004D558280555589BFAA870358C502145915
:10554000D23B0C5583D807043305D84005822E95ED
:10555000328763F3C8004687420741833307E5403B
:10556000634507002397070382803387D54063563E
:10557000E00023970702014582808D8EF6B7E5BFD4
:10558000EFA21FCB5E352A84BE95C2055E39C1816C
:105590004EB563F3B7005EB52285EFF0FFF95E38D4
:1055A0008983634BF50083476402228593E72700D4
:1055B0002303F402EF20002A6FA0DFC9EFA25FC728
:1055C0004111014409CDAA854841014411C52EC6A7
:1055D000EFF01F9CB2452A841145EFF04FFE228563
:1055E00041016FA03FC7EFA2BFC4014401E522857E
:1055F0006FA05FC60441EFF07FFC2A941374F40F90
:105600002685EDB7EFA2DFC241112AC61145EFF0A2
:105610000FF92A8401C9B2455146EF309004484041
:10562000EFF09FB6228541016FA0DFC20CCD8280D2
:105630002328B50882802326B5088280232EB5084A
:105640008280232CB508A30EC50282801C49054721
:105650006374F70429476381E704EFA27FBD2A84BE
:105660000325850809C5EFF0BF922324040803250C
:105670004408FD577EBCEFF01FF7685C2322040846
:10568000EFF07FF603250408EFF0FFF5232E040664
:10569000232004086FA01FBC8280EFA27FB6376969
:1056A00000209307C9201387818F83CC87011C4377
:1056B000316B850703A4C18E1CC393096006814A20
:1056C0001309C9209384818F138AC18E094D130B4E
:1056D000CBC1938B018509E803A441909384419049
:1056E000631C04226FA09FB5FD1993F9F90FE38B9A
:1056F00009FE034624051448854D6382CC02834D80
:10570000040B63800D100327C40AB386BB0183C654
:10571000F6FF05072326E40A6378D70C814D184865
:105720009946631DD700105C9440918E0326890131
:105730006376D60093871D0093FDF70F1624014C66
:10574000A18A95CE91466305D7009D466319D7027D
:105750000328440A8326840A0325040A8325C901F1
:10576000B306D8029040185C198EAA96B3D6B6023A
:1057700063F9C61093871D0093FDF70F054C0325B1
:10578000440819CD185C94401946998E03170405F6
:105790003307C70263E6E600EFF0FFE423220408C4
:1057A00018488D466312D710145C9840158F8326D5
:1057B000890163E6E61063940D108347C403034731
:1057C000D403850793F7F70F230EF40263EBE7008A
:1057D00083278409230E0402639A07122285EF208F
:1057E0006007A28A4044C5BD2326040A19476366A0
:1057F000B70193871D002308F40A2285EF20606417
:1058000031BF0317E4036344070005077ABC03278D
:105810000408E30507F08315E40303170405E35FB9
:10582000B7EE6384A6030317C4048316E404B147E8
:105830000D8736979376F60F63F3C700B146DA9675
:1058400094223317D7002318E4048356A405035782
:105850004406231F040263F3E600368742074183B0
:10586000835604040583231EE4046376D70013974C
:105870001600231EE404231DD4042285EF20404596
:1058800079BD0347140B014C330707032A9733579D
:10589000B702E376C7EE2285EF20C0540347140B0E
:1058A0000507A308E40AE1BDA546E316D7F0185C96
:1058B0009440998E032789010607E37ED7EE22855F
:1058C000EFD02FF92285EFF07FD85C44638D0A0278
:1058D00023A6FA008327C40981C7084CED55829797
:1058E000630B0C005E305A2C0C5428509306440075
:1058F0002286EF20602D032CC400A2850945EFF01D
:105900000FCC6284C9BB2320FA00E9B7084CA285FA
:105910008297E30505ECF1B52285EFD08FF3228560
:10592000EFF0DFD20329C400A285094523A024019A
:105930004A84EFF0CFC86DB3EFA29F8F1C412E8435
:105940006390B704DC451CC1232604002285EFF0D8
:10595000FFCF1C4829476381E7020547638EE700B4
:105960008347640213F7170001CB93E72700230353
:10597000F4022285EF10106E232804006FA09F8D83
:1059800023A0F19081461387019089E7D5DE23207B
:1059900007005DBFD0476317860091C21CC35844FF
:1059A000D8C75DB78546B287CDB71C491D4763652B
:1059B000F70AEFA2FF8731678A071307C7BFBA97B5
:1059C0009C432A848287EFD0CFE81387018F1C4342
:1059D000639987005C441CC323260400A285094503
:1059E0003DA823A0F19081461387019089E7EDD669
:1059F00023200700D5B7D0476317860091C21CC388
:105A00005844D8C7D1BF8546B287CDB7EFD06FE431
:105A1000A2851385418FEFF03FF2A2850D45EFF08F
:105A20000FBA014531A8EFD0CFE2A2851385C18E10
:105A3000EFF09FF065B78545EF103056954701C9E7
:105A40006FA05F818545EF1050557DF9A5471CC8B3
:105A50002285EF103060F1B701458280EFA24FFD43
:105A600041112E8511CE0E2632C6EFF07FB132469F
:105A70003285EFF0EFD181473E8541016FA08FFD68
:105A80008147FDFAEFF07FF2AA87FDB7EFA24FFA48
:105A900003A4C18E9304500619E06FA0AFFB032648
:105AA000840819CA832704098146A2858DCF084C32
:105AB000829719E123240408FD1493F4F40FF1DC18
:105AC0008347640213F7170009CF93E727002303E6
:105AD000F4022285EF10105883476402F19B2303E0
