:100000006F00E03E1300000013000000130000002A
:100010001300000013000000130000001300000094
:100020001300000013000000130000001300000084
:08003000130000007300100032
:1000380000000000000000006002000064020000F0
:100048000000000034030000000000000000000071
:100058003603000038030000000000000000000024
:100068003A030000000000003C030000000000000C
:100078003E03000040030000420300004403000068
:100088004603000048030000880700004C030000F6
:100098004E03000050030000520300005403000008
:1000A80056030000580300005A0300005C030000D8
:1000B8005E030000600300006203000064030000A8
:1000C80066030000680300006A0300006C03000078
:1000D8006E03000070030000720300007403000048
:1000E80076030000780300007A0300007C03000018
:1000F8007E030000800300008203000084030000E8
:1001080086030000880300008A0300008C030000B7
:100118008E03000090030000920300009403000087
:1001280096030000980300009A0300009C03000057
:100138009E030000A0030000A2030000A403000027
:10014800A6030000A8030000B6070000AC030000E7
:10015800AE030000B0030000B2030000B4030000C7
:10016800B6030000B8030000BA030000BC03000097
:10017800BE030000C0030000C2030000C403000067
:10018800C6030000C8030000CA030000CC03000037
:10019800CE030000D0030000D2030000D403000007
:1001A800D6030000D8030000DA030000DC030000D7
:1001B800DE030000E0030000E2030000E4030000A7
:1001C800E6030000E8030000EA030000EC03000077
:1001D8000000000000000000000000000000000017
:1001E8000000000000000000000000000000000007
:0801F8000000000000000000FF
:10020000397101436EC619A0397141536AC866CA73
:1002100062CC5ECE19A0397101535AD056D252D455
:100220004ED64AD826DA22DC06DE330161408282CD
:1002300041114AC026C222C406C68282B24D410183
:10024000024D924C224CB24B4101024B924A224A3F
:10025000B2494101024992442244B24041018280A4
:100260007300203001A0EFF2BFFCE9219165056524
:100270009385F58313057538852BFD2101A0B717EC
:1002800002409843B706FFF81367170098C3D84396
:10029000758FD8C39843B706F7FEFD16758F98C3C0
:1002A0009843B706FCFFFD16758F98C3D843B70671
:1002B00081FFFD16758FD8C39843B70600ECFD1675
:1002C000758F98C33707FF0098C723A60702B74664
:1002D000024003A706801367070123A0E680D843E6
:1002E000B706C1FFFD16D8C3D843D8C3D843136798
:1002F0000740D8C3D843758FD8C3D843B706000189
:10030000D8C39843558F98C3984393166700E3DD8D
:1003100006FED843B7160240719BD8C3D843136773
:100320002700D8C32147DC42B18BE39EE7FE8280E1
:1003300001A001A001A001A001A001A001A001A0B5
:1003400001A001A001A001A001A001A001A001A0A5
:1003500001A001A001A001A001A001A001A001A095
:1003600001A001A001A001A001A001A001A001A085
:1003700001A001A001A001A001A001A001A001A075
:1003800001A001A001A001A001A001A001A001A065
:1003900001A001A001A001A001A001A001A001A055
:1003A00001A001A001A001A001A001A001A001A045
:1003B00001A001A001A001A001A001A001A001A035
:1003C00001A001A001A001A001A001A001A001A025
:1003D00001A001A001A001A001A001A001A001A015
:1003E00001A001A001A001A001A001A001A097010E
:1003F000002093812141178100201301A1C017051E
:1004000000001305E542970500209385A5BF170658
:100410000020130626BF63FAC5008322050023A02F
:10042000550011059105E3EAC5FE170500201305E7
:1004300065BD938581806377B50023200500110594
:10044000E36DB5FEFD42739002BCAD4273904280F5
:10045000B76200009382820873A002309702000006
:100460009382C2BD93E2320073905230EFF03FE1CD
:1004700097020000938262DF739012347300203081
:10048000B707014023AAA74082809C4513F70701C4
:1004900013F8F70001C7D8413368E8008E2113F73D
:1004A000F50F39C318418146854E3D4F930F8002A9
:1004B00093028004214E3396DE00B3F8C500631129
:1004C00016039398260033131F011343F3FF33776A
:1004D000E300B318180133E7E800639FF70550C93C
:1004E0008506E39AC6FD18C11307F00F6375B704BC
:1004F00054412146854E3D4F930F80029302800464
:10050000414EB398CE0033F715016392E8021317FA
:10051000260001173313EF001343F3FFB376D30024
:100520003317E800D98E639DF701232A15010506CC
:10053000E319C6FD54C18280E39457FA10C94DB740
:10054000E39757FE23281501DDB719C20CC9828035
:100550004CC98280B7070020938707009443182175
:1005600081E63C21920721A894430546639FC60279
:100570003C21103192076314D60093E707F8B7E6E1
:1005800000E093F7F70FBA962380F640854693571D
:1005900057003397E6005441A5C2938707048A07A2
:1005A000B7E600E0B69798C382808C438946639192
:1005B000D50214313C216365D6008A06B6975DB733
:1005C0009386E6038A06B69793F7F70F920775B7F7
:1005D00090438D46631CD60014313C216364D600E1
:1005E0008606E9BF9386C6078606F1BF9443914706
:1005F000E39EF6F81C31BDB7938707064DB799C542
:10060000371702401C4F5D8D08CF8280B71702401C
:10061000984F1345F5FF798D88CF828099C537179C
:1006200002405C4F5D8D48CF8280B7170240D84FA3
:100630001345F5FF798DC8CF82801E2137370140E1
:10064000930607C0C207C1836300D504B706004004
:10065000630CD502938606406308D502B7160040A6
:10066000138606806302C502938606C0630ED5001A
:1006700013070740630AE50037570140930607C098
:100680006304D5006316E500BA2193F7F7F8D98F14
:1006900037170040630CE500130707406308E500C7
:1006A00093F7F7CFFA21C207C183D98F1EA1DE21AC
:1006B0005EB59E211EB5B7370140138707C0630E94
:1006C000E50093870740630AF500B7570140138799
:1006D00007C06304E5006314F5009C251EB9854737
:1006E0005EA982801E2189C593E717001EA1828022
:1006F000C207C183F99BC207C183CDBF5E2501C676
:10070000DD8D4EA5828093C5F5FFFD8DDDBF1E21D9
:1007100089C593E707081EA18280C207C18393F7AA
:10072000F7F7C207C183C5BF93C5F5FFC205C181F5
:100730000EA98280EFF2DFAF411185451305000459
:1007400002C202C402C6653D8567938707807C822A
:1007500037250140C1473EC64C008D471305058033
:100760003EC425334101FDB4EFF29FAC4111930724
:100770006014231501007C8489475C852800854727
:100780003EC6C93B4101F9B40545DD39B707002034
:10079000938747009A2385653725014042074183A7
:1007A000133717009AA392239385058013050580BC
:1007B000693B73002030854537150040B537B707D2
:1007C0000020938747009A2385653725014042071B
:1007D0004183133717009AA392239385058013054D
:1007E0000580A53373002030EFF29FA441112E84C1
:1007F000AA84854541451D35C1474C003715004049
:100800007C836484608223150100053D054685458F
:1008100037150040E535854537150040CD3D854508
:0C08200037150040C135410135B400001F
:00000001FF
