:100000006F004040130000001300000013000000C8
:100010001300000013000000130000001300000094
:100020001300000013000000130000001300000084
:08003000130000007300100032
:1000380000000000000000006002000064020000F0
:10004800000000004A03000000000000000000005B
:100058004C0300004E0300000000000000000000F8
:1000680050030000000000005203000000000000E0
:100078005403000056030000580300005A03000010
:100088005C0300005E030000BC0500006203000082
:100098006403000066030000680300006A030000B0
:1000A8006C0300006E030000700300007203000080
:1000B8007403000076030000780300007A03000050
:1000C8007C0300007E030000800300008203000020
:1000D8008403000086030000880300008A030000F0
:1000E8008C0300008E0300009003000092030000C0
:1000F8009403000096030000980300009A03000090
:100108009C0300009E030000A0030000A20300005F
:10011800A4030000A6030000A8030000AA0300002F
:10012800AC030000AE030000B0030000B2030000FF
:10013800B4030000B6030000B8030000BA030000CF
:10014800BC030000BE030000E6050000C203000077
:10015800C4030000C6030000C8030000CA0300006F
:10016800CC030000CE030000D0030000D20300003F
:10017800D4030000D6030000D8030000DA0300000F
:10018800DC030000DE030000E0030000E2030000DF
:10019800E4030000E6030000E8030000EA030000AF
:1001A800EC030000EE030000F0030000F20300007F
:1001B800F4030000F6030000F8030000FA0300004F
:1001C800FC030000FE03000000040000020400001D
:1001D8000000000000000000000000000000000017
:1001E8000000000000000000000000000000000007
:0801F8000000000000000000FF
:10020000397101436EC619A0397141536AC866CA73
:1002100062CC5ECE19A0397101535AD056D252D455
:100220004ED64AD826DA22DC06DE330161408282CD
:1002300041114AC026C222C406C68282B24D410183
:10024000024D924C224CB24B4101024B924A224A3F
:10025000B2494101024992442244B24041018280A4
:100260007300203001A0EFF2BFFC392E372401408B
:10027000552681471304048093C41700054691C393
:100280000146930500102285F1241305007D452EBB
:10029000A687DDB7B71702409843B706FFF8136784
:1002A000170098C3D843758FD8C39843B706F7FE95
:1002B000FD16758F98C39843B706FCFFFD16758F22
:1002C00098C3D843B70681FFFD16758FD8C39843EE
:1002D000B70600ECFD16758F98C33707FF0098C767
:1002E00023A60702B746024003A70680136707014B
:1002F00023A0E680D843B706C1FFFD16D8C3D84374
:10030000D8C3D84313670740D8C3D843758FD8C321
:10031000D843B7060001D8C39843558F98C3984374
:1003200093166700E3DD06FED843B7160240719BC3
:10033000D8C3D84313672700D8C32147DC42B18B09
:10034000E39EE7FE828001A001A001A001A001A020
:1003500001A001A001A001A001A001A001A001A095
:1003600001A001A001A001A001A001A001A001A085
:1003700001A001A001A001A001A001A001A001A075
:1003800001A001A001A001A001A001A001A001A065
:1003900001A001A001A001A001A001A001A001A055
:1003A00001A001A001A001A001A001A001A001A045
:1003B00001A001A001A001A001A001A001A001A035
:1003C00001A001A001A001A001A001A001A001A025
:1003D00001A001A001A001A001A001A001A001A015
:1003E00001A001A001A001A001A001A001A001A005
:1003F00001A001A001A001A001A001A001A001A0F5
:1004000001A001A0970100209381C13F1781002026
:10041000130141BF1305406797050020938585BEF2
:100420001386818063FAC5008322050023A055004E
:1004300011059105E3EAC5FE13858180938501814D
:100440006377B500232005001105E36DB5FEFD427D
:10045000739002BCAD4273904280B76200009382F9
:10046000820873A0023097020000938222BD93E2BB
:10047000320073905230EFF0FFE197020000938258
:10048000C2DE7390123473002030B707014023AAF4
:10049000A74082809C4513F7070113F8F70001C7B6
:1004A000D8413368E8008E2113F7F50F39C318419E
:1004B0008146854E3D4F930F800293028004214E6A
:1004C0003396DE00B3F8C500631116039398260037
:1004D00033131F011343F3FF3377E300B3181801FD
:1004E00033E7E800639FF70550C98506E39AC6FD28
:1004F00018C11307F00F6375B70454412146854EA8
:100500003D4F930F800293028004414EB398CE007A
:1005100033F715016392E80213172600011733130E
:10052000EF001343F3FFB376D3003317E800D98EFF
:10053000639DF701232A15010506E319C6FD54C181
:100540008280E39457FA10C94DB7E39757FE2328EA
:100550001501DDB719C20CC982804CC9828099C5CA
:10056000371702401C4F5D8D08CF8280B7170240BD
:10057000984F1345F5FF798D88CF828093C5F5FF9D
:10058000C205C1810EA98280EFF29FCA4111854543
:100590001305000402C202C402C6D13789679387DB
:1005A00007F87C8237250140C1473EC64C008D4785
:1005B000130505803EC4F93D410169B90545F13592
:1005C000938781809A2385653725014042074183BF
:1005D000133717009AA3922393850580130505808E
:1005E000953F73002030854537150040413F938784
:1005F00081809A238565372501404207418313375F
:1006000017009AA3922393850580130505809937D7
:1006100073002030B707002083A7070037177A0040
:1006200013070720B3D7E70293F7F70F2386F1806C
:100630001307803EB387E7022395F1808280B7F7E6
:1006400000E0D8438146799BD8C303D7A180330605
:10065000A70290CBD4CB98431367070198C3984364
:100660001367170298C3D843058B75DF9843799BAE
:0406700098C3828029
:0806740000449508000000009D
:00000001FF
