:100000006F006045130000001300000013000000A3
:100010001300000013000000130000001300000094
:100020001300000013000000130000001300000084
:08003000130000007300100032
:1000380000000000000000006002000064020000F0
:10004800000000009C030000000000000000000009
:100058009E030000A0030000000000000000000054
:10006800A203000000000000A4030000000000003C
:10007800A6030000A8030000AA030000AC030000C8
:10008800AE030000B003000066020000B4030000E5
:10009800B6030000B8030000BA030000BC03000068
:1000A800BE030000C0030000C2030000C403000038
:1000B800C6030000C8030000CA030000CC03000008
:1000C800CE030000D0030000D2030000D4030000D8
:1000D800D6030000D8030000DA030000DC030000A8
:1000E800DE030000E0030000E2030000E403000078
:1000F800E6030000E8030000EA030000EC03000048
:10010800EE030000F0030000F2030000F403000017
:10011800F6030000F8030000FA030000FC030000E7
:10012800FE030000000400000204000004040000B4
:1001380006040000080400000A0400000C04000083
:100148000E04000010040000120400001404000053
:1001580016040000180400001A0400001C04000023
:100168001E040000200400002204000024040000F3
:1001780026040000280400002A0400002C040000C3
:100188002E04000030040000320400003404000093
:1001980036040000380400003A0400003C04000063
:1001A8003E04000040040000420400004404000033
:1001B80046040000480400004A0400004C04000003
:1001C8004E040000500400005204000054040000D3
:1001D8000000000000000000000000000000000017
:1001E8000000000000000000000000000000000007
:0801F8000000000000000000FF
:10020000397101436EC619A0397141536AC866CA73
:1002100062CC5ECE19A0397101535AD056D252D455
:100220004ED64AD826DA22DC06DE330161408282CD
:1002300041114AC026C222C406C68282B24D410183
:10024000024D924C224CB24B4101024B924A224A3F
:10025000B2494101024992442244B24041018280A4
:100260007300203001A00545DD24B70700209387E7
:1002700007009A23856537250140420741831337DC
:1002800017009AA39223938505801305058069269C
:1002900073002030EFF2DFF94D29B52901A0B7171F
:1002A00002409843B706FFF841111367170098C33F
:1002B000D84337060200758FD8C39843B706F7FEB8
:1002C000FD16758F98C39843B706FCFFFD16758F12
:1002D00098C3D843B70681FFFD16758FD8C39843DE
:1002E000B70600ECFD16758F98C33707FF0098C757
:1002F00023A6070202C402C69843C166558F98C35D
:10030000B716024005679C42F18F3EC6A24785079B
:100310003EC4B24781E7A247E397E7FEB717024022
:100320009C431397E7006357070685473EC632474D
:100330008547631FF704B7170240D843B706C1FFCC
:10034000FD16D8C3D843D8C3D84313670740D8C3D2
:10035000D843758FD8C3D843B7062900558FD8C363
:100360009843B7060001558F98C3984393166700CA
:10037000E3DD06FED843B7160240719BD8C3D843CD
:1003800013672700D8C32147DC42B18BE39EE7FE09
:100390004101828002C661BF01A001A001A001A0AD
:1003A00001A001A001A001A001A001A001A001A045
:1003B00001A001A001A001A001A001A001A001A035
:1003C00001A001A001A001A001A001A001A001A025
:1003D00001A001A001A001A001A001A001A001A015
:1003E00001A001A001A001A001A001A001A001A005
:1003F00001A001A001A001A001A001A001A001A0F5
:1004000001A001A001A001A001A001A001A001A0E4
:1004100001A001A001A001A001A001A001A001A0D4
:1004200001A001A001A001A001A001A001A001A0C4
:1004300001A001A001A001A001A001A001A001A0B4
:1004400001A001A001A001A001A001A001A001A0A4
:1004500001A001A001A0970100209381A13A17817A
:100460000020130121BA1305807A97050020938597
:1004700065B9170600201306E6B863FAC5008322A3
:10048000050023A0550011059105E3EAC5FE1705F7
:100490000020130525B7938581806377B50023205D
:1004A00005001105E36DB5FEFD42739002BCAD423F
:1004B00073904280B76200009382820873A002307A
:1004C00097020000938282B793E232007390523019
:1004D000EFF0FFDC97020000938202DC739012348D
:1004E000730020305841032805004C453706014071
:1004F000930706403E979346F8FFB1C58325064013
:10050000F58D2320B640D043F18ED4C31443B3E617
:10051000060114C3184190479346F7FF758E90C7A4
:10052000D047F18ED4C7144541466399C60094471D
:10053000D98E94C7D447558FD8C78280B697944335
:10054000558F98C382801C43F58F1CC38280B707E8
:10055000014023AAA74082809C4513F7070113F8A6
:10056000F70001C7D8413368E8008E2113F7F50F73
:1005700039C318418146854E3D4F930F8002930247
:100580008004214E3396DE00B3F8C50063111603D4
:100590009398260033131F011343F3FF3377E300CF
:1005A000B318180133E7E800639FF70550C98506C3
:1005B000E39AC6FD18C11307F00F6375B7045441E1
:1005C0002146854E3D4F930F800293028004414E99
:1005D000B398CE0033F715016392E8021317260093
:1005E00001173313EF001343F3FFB376D300331730
:1005F000E800D98E639DF701232A15010506E3194A
:10060000C6FD54C18280E39457FA10C94DB7E397F1
:1006100057FE23281501DDB719C20CC982804CC9C9
:10062000828013F7C50F93F73500B7050140BA95DF
:1006300094458A073D473317F7001347F7FF758F37
:1006400098C598453315F500598D88C58280B70740
:100650000020938747009443182181E63C219207AC
:1006600021A894430546639FC6023C21103192079E
:100670006314D60093E707F8B7E600E093F7F70FA7
:10068000BA962380F6408546935757003397E60085
:100690005441A5C2938707048A07B7E600E0B697DE
:1006A00098C382808C4389466391D50214313C21E2
:1006B0006365D6008A06B6975DB79386E6038A0619
:1006C000B69793F7F70F920775B790438D46631C63
:1006D000D60014313C216364D6008606E9BF9386B8
:1006E000C6078606F1BF94439147E39EF6F81C3196
:1006F000BDB7938707064DB799C5371702401C4F02
:100700005D8D08CF8280B7170240984F1345F5FFE3
:10071000798D88CF8280EFF2BFB1411185451305F5
:10072000000402C202C402C6C13F856793870780E6
:100730007C8237250140C1473EC64C008D471305DA
:1007400005803EC4113D410131B6EFF27FAE7971B3
:100750008545154502CA02CC02CE02D002D202D48F
:1007600002D602C602C8493F854737150140FC82C0
:100770004C0893078004130505803ECEF13B81456C
:10078000014545350544B147081022D03ED422D654
:1007900002D2893B930760117C86680089475C8799
:0807A00022C8753545617DB4E6
:00000001FF
